:020000040800F2
:10000000F8060020B92B0008C12B0008C32B0008FC
:10001000C52B0008C72B0008C92B000800000000F2
:10002000000000000000000000000000CB2B0008D2
:10003000CD2B000800000000CF2B0008D12B0008BA
:10004000D32B0008D32B0008D32B0008D32B000898
:10005000D32B0008D32B0008D32B0008D32B000888
:10006000D32B0008D32B0008D32B0008D32B000878
:10007000D32B0008D32B0008D32B0008D32B000868
:10008000D32B0008D32B0008D32B0008D32B000858
:10009000D32B0008D32B0008D32B0008D32B000848
:1000A000D32B0008D32B0008D32B0008D32B000838
:1000B000D32B0008D9010008D32B0008D32B00084C
:1000C000D32B0008D32B0008D32B0008D32B000818
:1000D000D32B0008D32B0008D32B0008D32B000808
:1000E000D32B0008D32B0008D32B0008D32B0008F8
:1000F000D32B0008D32B0008D32B0008D32B0008E8
:10010000D32B0008D32B0008D32B0008D32B0008D7
:10011000D32B0008D32B0008D32B0008D32B0008C7
:10012000D32B0008D32B0008D32B0008D32B0008B7
:1001300000F002F800F03AF80AA090E8000C8244BF
:100140008344AAF10107DA4501D100F02FF8AFF29C
:10015000090EBAE80F0013F0010F18BFFB1A43F0A5
:10016000010318476460000084600000103A24BF57
:1001700078C878C1FAD8520724BF30C830C144BF0C
:1001800004680C607047000000230024002500264E
:10019000103A28BF78C1FBD8520728BF30C148BFEA
:1001A0000B6070471FB51FBD10B510BD03F03EFCBE
:1001B0001146FFF7F7FF00F068F803F05CFC03B4AA
:1001C000FFF7F2FF03BC03F05DFC000030BF72B626
:1001D00062B680F30888704708B5FE48008800F0D2
:1001E000010030B3FC480088012811D1FB48008889
:1001F00001281ED102234FF478420090F84801886C
:10020000F848008800F045FE0020F349088010E01F
:10021000F248008801280CD102234FF6FF720090AB
:10022000EF480188EF48008800F033FE0120EA49DA
:100230000880E848008820F00100E649088008BDF1
:1002400070B505460C46E848C06940F00200E64932
:10025000C861E0481C300580001F0480DD48001F95
:10026000008840F00100DB49091F0880D948103898
:10027000008840F00100D7491039088002231D2270
:100280000321012002F040FB70BD86B000BF00BF1B
:1002900001F03BFB01F060FA02F002FB01F09AFF73
:1002A00002F0CAF801F0B2FB01F0CAFD41F61F41AD
:1002B00041F28730FFF7C4FF0DE000201021CBA2F0
:1002C0001F23CDE900210290DA021E2101F0F2F98C
:1002D000C82001F07EFA02F051F90028EDD110217A
:1002E000C6A21F23CDE900210290DA021E2101F0EF
:1002F000E1F902F0D8F90DE000201021C2A21F237D
:10030000CDE900210290DA021E2101F0D3F9C820C4
:1003100001F05FFA01F000FC0028EDD11021BFA22E
:100320001F23CDE900210290DA021E2101F0C2F95B
:1003300001F0AFFC4FF6FF70EF231A46002100904A
:10034000084600F0A9FC4FF61960EF2340F23F1277
:1003500000210090F02000F09FFC002011230246B5
:1003600077210090084600F094FD002022230246E9
:1003700077210090084600F08CFD002033230246D0
:1003800077210090084600F084FD002044230246B7
:1003900077210090084600F07CFD0020552302469E
:1003A00077210090084600F074FD00206623024685
:1003B00077210090084600F06CFD002010219BA2E0
:1003C0004FF61963CDE9002102901F22B421F020DD
:1003D00001F0E0F8FCE001F0A5FD00285AD001F0A2
:1003E00050FD954800880F280ED1002093490880C1
:1003F000102193A24FF61963CDE9002102901F222C
:10040000B421F02001F0C6F88B48008810280FD1E5
:1004100001208A4908800020102184A24FF6196328
:10042000CDE9002102901F22B421F02001F0B2F8A2
:10043000814800880A2190FBF1F030308349087030
:100440007D4800880A2190FBF1F201FB1200303058
:100450007E494870084601F0AAFB20280DD10020F3
:1004600010217BA24FF61963CDE9002102901F22D3
:10047000C821F02001F08EF80CE00020102177A2B6
:100480004FF61963CDE9002102901F22C821F02008
:1004900001F080F8744802F0E9F800289AD1724817
:1004A00000783038642148436F494978303901EB8E
:1004B000810100EB41016C4880783038084449499B
:1004C00008806948C0783038642148436649097912
:1004D000303901EB810100EB41016348407930384C
:1004E00008443F4908803F48008830B908460088E2
:1004F00018B900203949088002E0012037490880F6
:100500003848008859490988884205D1344800880C
:100510005749098888425BD04FF6FF70EF231A468F
:1005200000210090084600F0B7FB4FF61960EF235A
:1005300040F23F1200210090F02000F0ADFB0020BF
:100540001123024677210090084600F0A2FC00200B
:100550002223024677210090084600F09AFC0020F2
:100560003323024677210090084600F092FC0020D9
:100570004423024677210090084600F08AFC0020C0
:100580005523024677210090084600F082FC0020A7
:100590006623024677210090084600F07AFC114855
:1005A0000088B0F5A07F0BDD0120102131A21F23B0
:1005B000CDE900210290DA021E21002001F07AF834
:1005C00007480088F02862DD0120102129A255E0AB
:1005D00033E30000100400402A0000202E00002019
:1005E0000600002004000020001002404E52463257
:1005F000344C3031204572726F7200004E524632D8
:10060000344C3031204F4B004E524632344C303156
:100610002A32204572726F72000000004E5246323C
:10062000344C30312A32204F4B000000CAD6B6AFCE
:10063000C4A3CABD000000004A0000202C00002016
:10064000D7D4B6AFC4A3CABD000000002300002069
:10065000B7A2CBCDB3C9B9A600000000B7A2CBCDDD
:10066000CAA7B0DC000000001C0000200000002031
:10067000020000206572726F720000001F23CDE936
:1006800000210290DA026421002001F013F8F748FB
:100690000088012809D102234FF478420090F448E1
:1006A0000188F448008800F0F4FBF24800887728BD
:1006B00012DBEF48008877280EDBEE480088773899
:1006C00000FB00F1EA4800887738E94A1288773A57
:1006D00000FB0210E8490880E6480088772812DC11
:1006E000E348008877280EDBE2480088C0F17700F5
:1006F0004043DF4909887739DD4A1288773A01FBA0
:100700000200DD490880DB480088772814DCD848DF
:100710000088772810DCD7480088C0F17700404374
:10072000D3490988C1F17701D14A1288C2F1770211
:1007300001FB0200D0490880CE480088772813DBEF
:10074000CB48008877280FDCCA48008877384043B8
:10075000C7490988C1F17701C54A1288C2F17702F9
:1007600001FB0200C4490880C3480088B0F5917FAE
:100770000DDA00202021C1A24FF61963CDE9002136
:1007800002901F220146F02000F004FF70E0BA48FA
:10079000008840F2844188420DDC00202021B9A26B
:1007A0004FF61963CDE9002102901F220146F02087
:1007B00000F0F0FE5CE0B048008840F62921884255
:1007C0000DDC00202021B1A24FF61963CDE90021F4
:1007D00002901F220146F02000F0DCFE48E0A6480F
:1007E000008841F2102188420DDC00202021A9A2BE
:1007F0004FF61963CDE9002102901F220146F02037
:1008000000F0C8FE34E09C48008841F63941884237
:100810000DDC00202021A1A24FF61963CDE90021B3
:1008200002901F220146F02000F0B4FE20E0924822
:10083000008842F6A40188420DDC0020202199A204
:100840004FF61963CDE9002102901F220146F020E6
:1008500000F0A0FE0CE00020202194A24FF61963C6
:10086000CDE9002102901F220146F02000F092FE07
:100870008148008842F6A40188427DDC7D480088DA
:10088000772810D17A48008877280CD100202021C1
:1008900088A24FF61963CDE9002102901F222D2175
:1008A000F02000F077FE73480088772851DD70480B
:1008B000008877284DDA6F4800887738019003F078
:1008C0004DFACDE904016A480088C0F17700019033
:1008D00003F044FACDE90201DDE9042303F0E6F870
:1008E000764A03C2764A774B744903C903F04EFA3D
:1008F0000DD20020202174A24FF61963CDE900210A
:1009000002901F222D21F02000F044FE21E0704AC9
:10091000704B6A4903C903F039FA0DD20020202137
:100920006DA24FF61963CDE9002102901F222D21FF
:10093000F02000F02FFE0CE00020202168A24FF6EE
:100940001963CDE9002102901F222D21F02000F033
:1009500021FE48480088772854DA454800887728DF
:1009600050DA44480088C0F17700019003F0F6F9AE
:10097000CDE904013E4800E013E10088C0F17700B2
:10098000019003F0EBF9CDE90201DDE9042303F066
:100990008DF84A4A03C24A4A4A4B484903C903F000
:1009A000F5F90DD2002020214FA24FF61963CDE9B1
:1009B000002102901F222D21F02000F0EBFD21E00C
:1009C000434A444B3D4903C903F0E0F90DD20020EE
:1009D000202147A24FF61963CDE9002102901F2282
:1009E0002D21F02000F0D6FD0CE0002020213CA2BB
:1009F0004FF61963CDE9002102901F222D21F0202E
:100A000000F0C8FD1B48008877282EDA18480088B7
:100A100077282ADD17480088C0F17700019003F09D
:100A20009DF9CDE90401124800887738019003F060
:100A300095F9CDE90201DDE9042303F037F81F4AF7
:100A400003C21F4A1F4B1D4903C903F09FF953D22C
:100A50000020202124A24FF61963CDE90021029045
:100A60001F222D21F02000F095FD67E02E000020D0
:100A7000060000200400002008000020CAAEBBB71A
:100A800000000000BEC5BBB700000000B0CBBBB784
:100A900000000000C6DFBBB700000000C1F9BBB713
:100AA00000000000CEE5BBB700000000CDD1B0D003
:100AB00000000000D6D0D0C40000000010000020CC
:100AC000E5D022DBF97EDA3FD5FDD3D2000000006D
:100AD0001D5A643BDF4F0340D3D2C9CF0000000052
:100AE000D5FDC9CF00000000D5FDD7F30000000000
:100AF000D7F3C9CF00000000514A524B524903C9F5
:100B000003F044F90DD20020202150A24FF61963C2
:100B1000CDE9002102901F222D21F02000F03AFDA6
:100B20000CE0002020214BA24FF61963CDE90021F3
:100B300002901F222D21F02000F02CFD4748008854
:100B4000772851DD4648008877284DDD43480088E6
:100B50007738019003F002F9CDE90401404800889C
:100B60007738019003F0FAF8CDE90201DDE90423BA
:100B700002F09CFF344A03C23A4A3B4B324903C954
:100B800003F004F90ED200202021AFF2C4024FF688
:100B90001963CDE9002102901F222D21F02000F0E1
:100BA000F9FC21E0264A274B274903C903F0EEF858
:100BB0000DD2002020212DA24FF61963CDE900218E
:100BC00002901F222D21F02000F0E4FC0CE0002018
:100BD000202120A24FF61963CDE9002102901F22A7
:100BE0002D21F02000F0D6FC2248008801280ED1EB
:100BF00000201021AFF2CC524FF61963CDE900214D
:100C000002901F22B421F02000F0C4FC0DE000206F
:100C10001021AFF2D4524FF61963CDE900210290B2
:100C20001F22B421F02000F0B5FC0C4800881249C6
:100C300008800B48008811490880FFF7CCBB0000F2
:100C40001D5A643BDF4F034010000020D7F3CFC292
:100C500000000000D5FDCFC200000000040000200D
:100C600006000020E5D022DBF97EDA3FD3D2CFC2E6
:100C7000000000002C0000200000002002000020E6
:100C800070B505460E4614463146284601F090F9E7
:100C9000204601F07CF970BD2DE9F84F06460F465D
:100CA00014461D46DDF82890A01B401C1FFA80FA50
:100CB000E81B401C1FFA80FB0BFB0AF00090681E2B
:100CC00083B2601E82B23946304601F097F94FF088
:100CD000000804E0F748A0F8009008F10108009827
:100CE0008045F7D3F4484088401E83B2F24800881C
:100CF000401E82B20021084601F080F9BDE8F88F5D
:100D00002DE9FF4F85B081468A460020049003906C
:100D10000798A0EB09050898A0EB0A06CDF8089003
:100D2000CDF804A0002D01DD012705E00DB9002755
:100D300002E04FF0FF376D42002E02DD4FF0010858
:100D400006E016B94FF0000802E04FF0FF38764297
:100D5000B54201DD2C4600E034464FF0000B21E0A7
:100D6000019A91B2029A90B201F03CF90498284499
:100D700004900398304403900498A04205DD049841
:100D8000001B04900298384402900398A04205DDAD
:100D90000398001B03900198404401900BF101005F
:100DA0001FFA80FB601C8345DADD09B0BDE8F08FD7
:100DB0002DE9F04104460D4616461F462B463246A5
:100DC00029462046FFF79CFF3B46224629462046FF
:100DD000FFF796FF3B46324639462046FFF790FF25
:100DE0003B46324629463046FFF78AFFBDE8F08190
:100DF000F8B504460D4616461F46B04800883B46E7
:100E00003246294600902046FFF746FFF8BD2DE9FF
:100E1000F04104460D4616461F46DDF81880EA19D3
:100E200091B2A21990B24246FFF72AFFEA1991B295
:100E3000A21B90B24246FFF723FFEA1B91B2A21910
:100E400090B24246FFF71CFFEA1B91B2A21B90B280
:100E50004246FFF715FFAA1991B2E21990B2424635
:100E6000FFF70EFFAA1991B2E21B90B24246FFF7BC
:100E700007FFAA1B91B2E21990B24246FFF700FFAA
:100E8000AA1B91B2E21B90B24246FFF7F9FEBDE801
:100E9000F0812DE9FF4F81B0824617469846DDF874
:100EA00038B0002445464FEA4800C0F10306BBF1C4
:100EB000000F1FD01BE0A14608E04B4622460097DA
:100EC00050460299FFF7A3FF09F10109A945F4DD96
:100ED000002E04DA042000FB0460861D06E0601B7F
:100EE000042101FB006000F10A066D1E641CAC4287
:100EF000E1DD18E015E02B462246009750460299A6
:100F0000FFF785FF002E04DA042000FB0460861D35
:100F100006E0601B042101FB006000F10A066D1E63
:100F2000641CAC42E7DD05B0BDE8F08F2DE9FF4F52
:100F300083B081468A469346DDE910645F480088A5
:100F40000290A6F12000C6B204EBD47009EB600059
:100F5000401E82B20AEB0400401E83B2514648464E
:100F6000019401F04BF8129850BB002525E00C2CA1
:100F700007D106EB4600524901EB800010F80580CE
:100F800004E0504800EB061010F8058000270DE043
:100F900008F0010018B1584600F0F9FF02E0069889
:100FA00000F0F5FF4FEA6808781CC7B204EBD47173
:100FB000B7EB610FECDB681CC5B2A542D7DB2DE0B7
:100FC000002529E00C2C07D106EB46003C4901EB3B
:100FD000800010F8058004E03A4800EB061010F895
:100FE0000580002711E03548A0F800B008F00100A6
:100FF00038B10AEB050291B209EB070290B200F09A
:10100000F1FF4FEA6808781CC7B204EBD471B7EB64
:10101000610FE8DB681CC5B2A542D3DB2749029803
:10102000088025484088401E83B223480088401E1F
:1010300082B20021084600F0E1FF07B0BDE8F08F62
:101040002DE9FE4306460F4615461C46DDF828806E
:101050001DE019480088401EB04204DB1648408855
:10106000401EB84201DABDE8FE8320788DE82101F8
:10107000154803881148028839463046FFF756FF65
:10108000284605EBD07106EB61018EB2641C207816
:101090007E2802DC20782028DBDA00BFE3E710B5E9
:1010A0000246012000E050430B00A1F10104E1B22F
:1010B000F9D110BD0008006C880000206E000020EF
:1010C000AC3E000820430008700000202DE9FF4FCF
:1010D00083B0074691461E46109C4FF0000A00253B
:1010E00043E0701B401EC1B20A20FFF7D8FFB9FBD6
:1010F000F0F00A21B0FBF1F201FB1208BAF1000F87
:101100001BD1701EA84218DDB8F1000F13D10020CA
:101110002021A346CDE90014029004EBDB714910B5
:1011200001FB057188B2FE490B88FE490A880499C3
:10113000FFF7FCFE17E04FF0010A002108F1300034
:10114000C0B2A346CDE90141009004EBDB71491028
:1011500001FB057188B2F2490B88F2490A880499AB
:10116000FFF7E4FE00BF681CC5B2B542B9DB07B0AB
:10117000BDE8F08F2DE9FC5F0546884691469A460A
:10118000DDF830B000953920019000245FE004EBD9
:101190000410E54911F810009BF80010884253D163
:1011A00004EB0410E04901EB400040789BF801108B
:1011B000884249D108F10F0083B205F10F0082B2D5
:1011C0004146284600F01AFF00263BE0002734E0A5
:1011D0000D9890B904EB0410D34901EB4000801C3A
:1011E000805D80213941084018B1484600F0CFFEAB
:1011F00021E0504600F0CBFE1DE0CA48A0F8009068
:1012000004EB0410C84901EB4000801C805D802184
:101210003941084018B14146284600F0E3FE681CF9
:1012200085B20098281A102805D1009D08F1010008
:101230001FFA80F803E0781CC7B2082FC8DB00BF94
:10124000701CC6B2202EC1DB00BF601C84B20198A6
:1012500084429CDBB5484088401E83B2B348008876
:10126000401E82B20021084600F0C8FEBDE8FC9F87
:101270002DE9FC5F0546884691469A46DDF830B078
:10128000009508200190002467E004EB840000EB47
:101290004410A74911F810009BF80010884259D15A
:1012A00004EB840000EB4410A14901EB40004078BE
:1012B0009BF8011088424DD108F1170083B205F167
:1012C000170082B24146284600F098FE00263FE013
:1012D000002738E00D98A0B904EB840000EB44101F
:1012E000934901EB4000801C805D8021394108401A
:1012F00018B1484600F04BFE23E0504600F047FE90
:101300001FE08848A0F8009004EB840000EB441034
:10131000874901EB4000801C805D802139410840F5
:1013200018B14146284600F05DFE681C85B2009861
:10133000281A182805D1009D08F101001FFA80F82D
:1013400003E0781CC7B2082FC4DB00BF701CC6B214
:10135000482EBDDB00BF601C84B20198844294DB40
:1013600072484088401E83B270480088401E82B296
:101370000021084600F042FEBDE8FC9F2DE9FC5F1D
:101380000546884691469A46DDF830B0009517200C
:10139000019000245FE004EB8410664911F810000E
:1013A0009BF80010884253D104EB8410614901EB93
:1013B000400040789BF80110884249D108F11F0095
:1013C00083B205F11F0082B24146284600F016FEA6
:1013D00000263BE0002734E00D9890B904EB841020
:1013E000544901EB4000801C805D80213941084058
:1013F00018B1484600F0CBFD21E0504600F0C7FD93
:101400001DE04848A0F8009004EB8410494901EB26
:101410004000801C805D80213941084018B1414660
:10142000284600F0DFFD681C85B20098281A2028A5
:1014300005D1009D08F101001FFA80F803E0781C37
:10144000C7B2082FC8DB00BF701CC6B2802EC1DB3C
:1014500000BF601C84B2019884429CDB3348408802
:10146000401E83B231480088401E82B200210846E7
:1014700000F0C4FDBDE8FC9F2DE9FC5F05468846F1
:1014800091469A46DDF830B0009502200190002484
:101490006FE0C5206043284911F810009BF8001048
:1014A000884263D1C5206043234901EB4000407866
:1014B0009BF80110884259D108F1370083B205F139
:1014C000370082B24146284600F098FD00264AE0E7
:1014D000002743E00D9890B9C5206043164901EB01
:1014E0004000801C805D80213941084018B1484689
:1014F00000F04DFD30E0504600F049FD2CE0094879
:10150000A0F80090C52060430B4901EB4000801C0F
:10151000805D80213941084090B1414628460DE068
:10152000700000206E000020104900088800002094
:10153000A2500008F2520008A05E000800F052FD20
:10154000681C85B20098281A382805D1009D08F13A
:1015500001001FFA80F803E0781CC7B2082FB9DB3E
:1015600000BF701CC6B2B6F5C47FB1DB00BF601C03
:1015700084B2019884428CDB76484088401E83B256
:1015800074480088401E82B20021084600F036FDF3
:10159000BDE8FC9F2DE9FF4F83B006468846914683
:1015A000DDE91147109DB2464FF0000B7CE0BBF126
:1015B000000F40D104EBD471664A1288A2EB61019E
:1015C000B14204DB63494988091B414502DA07B08F
:1015D000BDE8F08F2878802802DD4FF0010B63E032
:1015E00028780D2806D108EB04001FFA80F856462B
:1015F0006D1C1EE0102C0DDD102128788DE8830075
:101600004A4641463046069BFFF790FC06F108002B
:1016100086B20EE028788DE891004A464146304671
:10162000069BFFF783FC204604EBD07106EB6101BB
:101630008EB26D1C38E047480088001BB04204DBC6
:1016400044484088001B404500DAC0E74FF0000BDB
:10165000382C08D1CDE900574A4641463046069B12
:10166000FFF70AFF1DE0202C08D1CDE900574A46BC
:1016700041463046069BFFF781FE12E0182C08D148
:10168000CDE900574A4641463046069BFFF7F0FD3C
:1016900007E0CDE900574A4641463046069BFFF732
:1016A00069FDAD1C301986B2287800287FF47FAF21
:1016B00000BF8CE72DE9FF4F83B004460F469046EC
:1016C000DDE9119A109D284602F08AF986B2214977
:1016D0000988A1EBC60000EBD071C1F34F0B04EBFE
:1016E0000B0188B28DE8200642463946069BFFF77B
:1016F00051FF07B0BDE8F08F2DE9F04706460F46D1
:10170000154607F1270083B206F1270082B2394659
:10171000304600F073FC00240AE015F8149005EB45
:10172000440090F8018049EA082000F02CFC641C79
:10173000B4F5C86FF1DB07484088401E83B2054806
:101740000088401E82B20021084600F057FCBDE828
:10175000F08700008800002010B56FF0040001F051
:101760009AFA2E4800682E49B0FBF1F02D49087016
:101770000846007800EB4001C1EBC0104FF6FF7146
:1017800001EAC0002849088010BD0146254A1278A8
:101790004A434FF0E0235A6100229A611A461269C7
:1017A00042F001021A6100BF4FF0E022106900F020
:1017B00001021AB100F48032002AF5D04FF0E02285
:1017C000126922F001024FF0E0231A6100229A61AF
:1017D00070470146144A12884A434FF0E0235A6189
:1017E00000229A611A46126942F001021A6100BF92
:1017F0004FF0E022106900F001021AB100F48032CB
:10180000002AF5D04FF0E022126922F001024FF0D9
:10181000E0231A6100229A61704700003400002022
:1018200000127A0030000020320000200CB50020A9
:10183000019000906C48006840F480306A4908606C
:1018400000BF6948006800F4003000900198401C17
:101850000190009818B90198B0F5A06FF1D16248D5
:10186000006800F4003010B10120009001E0002079
:1018700000900098012843D15C48006840F01000B7
:101880005A4908600846006820F0030008600846CE
:10189000006840F0020008605348406852494860C0
:1018A0000846406848600846406840F480604860E8
:1018B0000846406820F47C1048600846406840F4C0
:1018C000E81048600846006840F08070086000BF7B
:1018D0004548006800F000700028F9D04248406890
:1018E00020F00300404948600846406840F002008C
:1018F000486000BF3C48406800F00C000828F9D15F
:101900000CBD10B5FFF792FF10BD10B5364800684A
:1019100040F00100344908600846406834490840F6
:101920003149486008460068324908402E4908603D
:101930000846006820F4802008600846406820F4CB
:10194000FE0048604FF41F008860FFF7DAFF4FF099
:1019500000602949086010BD10B500210020002258
:10196000214B5B6803F00C0121B1042906D0082942
:1019700028D107E0214B224C236027E01F4B204C4D
:10198000236023E0184B5B6803F47010164B5B6810
:1019900003F48032022303EB904022B9194B4343F6
:1019A000174C23600DE0104B5B6803F4003323B148
:1019B000144B4343124C236003E0104B4343104C41
:1019C000236003E00D4B0E4C236000BF00BF064BAD
:1019D0005B68C3F303130C4CE15C094B1B68CB4001
:1019E000074C236010BD00000010024000200240A0
:1019F0000000FFF8FFFFF6FE08ED00E000127A009D
:101A00003400002000093D003800002010B5B64821
:101A1000806940F00800B44988610846806940F058
:101A2000200088610846806940F480708861AF4872
:101A3000006820F07F40AD4908600846006840F02B
:101A40004C5008600846406820F00F004860084687
:101A5000406840F0080048600846C06840F4E07004
:101A6000C86000F07CF9A248008820F04000A0493E
:101A700008800846008820F0020008800846008898
:101A800020F0010008800846008840F040000880EF
:101A900000209849086001209749C1F89C0110BDB9
:101AA0002DE9F04107460D46164600209149091DD3
:101AB0000860384600F02AF98046002405E0FF203F
:101AC00000F024F92855601CC4B2B442F7DB0120B1
:101AD0008849091D08604046BDE8F0812DE9F041C4
:101AE00007460C46154600208249091D0860384605
:101AF00000F00CF98046002605E014F8010B00F018
:101B000005F9701CC6B2AE42F7DB01207949091D08
:101B100008604046BDE8F0811CB578A103C9CDE955
:101B20000001012000F06EF9052269463020FFF720
:101B3000D5FF052269461020FFF7B2FF002406E01A
:101B40001DF80400A52800D003E0601CC4B2052CD9
:101B5000F6DB00BF052C01D001201CBD0020FCE7F6
:101B600070B505460C4600206249091D08602846EC
:101B700000F0CCF80646204600F0C8F801205E4987
:101B8000C1F89C01304670BD70B50446002059492B
:101B9000091D0860204600F0B9F8FF2000F0B6F8F3
:101BA000054601205449C1F89C01284670BD70B516
:101BB0000546022000F026F900204E490860062262
:101BC0002946A020FFF78AFF01204B49C1F8980160
:101BD00000BF4848783800680028FAD10720FFF78E
:101BE000D3FF044621462720FFF7BAFF04F0100078
:101BF00028B1FF21E120FFF7B3FF102070BD04F0F2
:101C0000200008B12020F9E7FF20F7E770B504466F
:101C1000022000F0F7F80720FFF7B6FF0546294637
:101C20002720FFF79DFF05F0400050B10622214616
:101C30006120FFF735FFFF21E220FFF791FF002031
:101C400070BD0120FCE710B500202A49086005227C
:101C50002C492A20FFF742FF01212120FFF780FFB6
:101C600001212220FFF77CFF28212520FFF778FFA4
:101C700006213120FFF774FF0F212620FFF770FFA8
:101C80000F212020FFF76CFF01201B49C1F89801AC
:101C900010BD10B500201749086005221A493020F0
:101CA000FFF71CFF052217492A20FFF717FF012124
:101CB0002120FFF755FF01212220FFF751FF1A21B4
:101CC0002420FFF74DFF28212520FFF749FF0F2192
:101CD0002620FFF745FF0E212020FFF741FF0120BE
:101CE0000549C1F8980110BD0010024000200140D4
:101CF000003800409801244200002442A5A5A5A573
:101D0000A5000000B9610008B46100080246002186
:101D100007E0481C81B24FF6FE70814201DB0020D3
:101D200070474348008800F002000028F1D0404886
:101D3000001D0280002107E0481C81B24FF6FE70B2
:101D4000814201DB0020EBE73948008800F0010008
:101D50000028F1D03648001D0088C0B2E0E700B589
:101D60003448806940F00800324988610846C069FB
:101D700040F48040C86130480068C0F313002E4929
:101D80000860084600682D4908432B4908602A4826
:101D90000830006840F46040274908310860244852
:101DA000083800882249083908800846008840F42D
:101DB000007008800846008840F48070088008465B
:101DC000008840F004000880084600880880084623
:101DD000008840F0020008800846008840F00100BA
:101DE00008800846008840F01800088008460088EF
:101DF00008800846008840F040000880FF20FFF778
:101E000085FF00BD00F007000949083909884FF631
:101E1000C7721140064A083A11801146098841EA02
:101E2000C00111801146098841F0400111807047BE
:101E30000838004000100240040C01400000B0BB14
:101E40004848806940F080004649886146480068FB
:101E50000020454908600846006844490843424953
:101E6000086041480C30006840F0F0003E490C31F9
:101E7000086000203E4908803E4908803E490880AD
:101E8000704730B50122002141E0374C0C34246802
:101E90004FF6F0752C40344D0C352C602C462468E0
:101EA00064EA02042C604FF6FF7404EA42022C1F1D
:101EB000246804F0F004F02C27D21023002022E044
:101EC000294C083424681C40BCB901EB80042B4D1C
:101ED00035F81440284D2C8008E000E030BD224C3D
:101EE0000834246804F0F004F02CF7D01E4C0834B9
:101EF000246804F0F004F02CEFD34FF6FF7404EAEA
:101F00004303441CA0B20428DADB4C1CA1B2042910
:101F1000BBDB00BFE2E742F6E06000E0401E0028C5
:101F2000FCD1704710B510480C3000684FF6F071C6
:101F300008400D490C310860081F006800F0F000EF
:101F4000F0280DD21420FFF744FC07480830006841
:101F500000F0F000F02801D2012010BD0020FCE7C5
:101F60000020FAE700100240001C0140333388884B
:101F70004C000020480000204A0000204E000020B5
:101F8000FE4908807047FD49891C0880704700B5EC
:101F900002461046FFF7F7FF00BDF84A1080921C7A
:101FA0001180704700B5F6490889FFF7E9FF00BDC9
:101FB00000B502460B46F2494889FFF7E1FF1012CF
:101FC000FFF7E1FFD0B2FFF7DEFFED498889FFF7A9
:101FD000D7FF1812FFF7D7FFD8B2FFF7D4FFFFF7EC
:101FE000E1FF00BD30B504460D4629462046FFF707
:101FF000DFFFE4480088FFF7C6FF30BD30B5044678
:102000000D46DF494889FFF7BBFF2012FFF7BBFFF2
:10201000E0B2FFF7B8FF1012FFF7B5FFD0B2FFF73D
:10202000B2FFD7498889FFF7ABFF2812FFF7ABFF54
:10203000E8B2FFF7A8FF1812FFF7A5FFD8B2FFF725
:10204000A2FFFFF7AFFF30BD30B504460025CC48F6
:102050004088401E83B2CA480088401E82B20021D8
:102060000846FFF7CBFF00BF03E0C448801C048094
:102070006D1CB5F5163FF8D330BD00B59FB00121FA
:10208000080201F036F9012140F2791001F03EF921
:102090000120ADF8780010208DF87B0003208DF82A
:1020A0007A001EA9B84800F075FE2020ADF878002F
:1020B00010208DF87B0003208DF87A001EA9B3480C
:1020C00000F068FE4CF23370ADF8780018208DF8FF
:1020D0007B0003208DF87A001EA9AD4800F05AFE5F
:1020E0004FF68070ADF8780018208DF87B00032043
:1020F0008DF87A001EA9A54800F04CFE41F20100BF
:10210000ADF8780018208DF87B0003208DF87A0058
:102110001EA9A04800F03EFE012008900020099072
:102120000F200A9000200B900C900D900E90022032
:10213000019000200290052003900020049005905B
:102140000690079006200F9000201090119010200C
:1021500012900020139015901490169017904FF441
:1021600080501890002019904FF480401A90002061
:102170001B9008A81C9001A81D900FA801F076F9EB
:102180000121062001F0DAFA1FB000BD10B52020B1
:102190007E49143108606420FFF71BFB20207B4937
:1021A000103108603220FFF714FB10BD00B52C2061
:1021B00073490881012088714FF4A0700880F020D5
:1021C00048802A2048812B2088816C213620FFF707
:1021D000E4FE00BD10B5FFF750FFFFF7D7FFCF209B
:1021E000FFF7CEFE0020FFF7CEFEC120FFF7CBFEAB
:1021F0003020FFF7C8FEED20FFF7C2FE6420FFF796
:10220000C2FE0320FFF7BFFE1220FFF7BCFE8120B5
:10221000FFF7B9FEE820FFF7B3FE8520FFF7B3FE16
:102220001020FFF7B0FE7A20FFF7ADFECB20FFF7BE
:10223000A7FE3920FFF7A7FE2C20FFF7A4FE002001
:10224000FFF7A1FE3420FFF79EFE0220FFF79BFE62
:10225000F720FFF795FE2020FFF795FEEA20FFF715
:102260008FFE0020FFF78FFE0020FFF78CFEC020BE
:10227000FFF786FE1B20FFF786FEC120FFF780FEDA
:102280000120FFF780FEC520FFF77AFE3020FFF720
:102290007AFE3020FFF777FEC720FFF771FEB720E8
:1022A000FFF771FE3620FFF76BFE4820FFF76BFE4D
:1022B0003A20FFF765FE5520FFF765FEB120FFF7D6
:1022C0005FFE0020FFF75FFE1A20FFF75CFEB620DE
:1022D000FFF756FE0A20FFF756FEA220FFF753FE37
:1022E000F220FFF74DFE0020FFF74DFE2620FFF7FE
:1022F00047FE0120FFF747FEE020FFF741FE0F20D9
:10230000FFF741FE2A20FFF73EFE2820FFF73BFEA5
:102310000820FFF738FE0E20FFF735FE0820FFF7F4
:1023200032FE5420FFF72FFEA920FFF72CFE43209A
:10233000FFF729FE0A20FFF726FE0F20FFF723FEF6
:102340000020FFF720FE0020FFF71DFE0020FFF712
:102350001AFE0020FFF717FEE120FFF711FE002014
:10236000FFF711FE1520FFF70EFE1720FFF70BFEFB
:102370000720FFF708FE11200EE00000FE07006CAA
:10238000880000206E000020000C01400018014071
:102390000014014000200140FFF7F5FD0620FFF783
:1023A000F2FD2B20FFF7EFFD5620FFF7ECFD3C2060
:1023B000FFF7E9FD0520FFF7E6FD1020FFF7E3FD3D
:1023C0000F20FFF7E0FD3F20FFF7DDFD3F20FFF787
:1023D000DAFD0F20FFF7D7FD2B20FFF7D1FD0020FE
:1023E000FFF7D1FD0020FFF7CEFD0120FFF7CBFD69
:1023F0003F20FFF7C8FD2A20FFF7C2FD0020FFF7AE
:10240000C2FD0020FFF7BFFD0020FFF7BCFDEF205D
:10241000FFF7B9FD1120FFF7B3FD7820FFF7D9F9D9
:102420002920FFF7ADFDFFF7C1FE0120014908603B
:1024300010BD00008081214210B5C348806940F082
:102440000400C14988610846806940F0080088613D
:102450000846806940F0200088610846806940F4A1
:1024600080708861B948006820F47020B74908601E
:102470000846006840F440300860B4480C300068FA
:1024800040F01000B1490C310860B148006820F4F8
:102490007020AF4908600846006840F4403008608A
:1024A0000846C06840F01000C8600846006820F484
:1024B000700008600846006840F4000008600846A4
:1024C000C06840F02000C860022000F004FB00F06B
:1024D0007AF9A048008820F040009E49088008460C
:1024E000008820F0020008800846008820F00100E3
:1024F00008800846008840F0400008800020964987
:10250000086001209549C1F8900110BD2DE9F04106
:1025100007460D461646002091490860384600F0EF
:102520002BF98046002405E0FF2000F025F928550E
:10253000601CC4B2B442F7DB012089490860404600
:10254000BDE8F0812DE9F04107460C461546002014
:1025500083490860384600F00FF98046002605E000
:1025600014F8010B00F008F9701CC6B2AE42F7DB9C
:1025700001207B4908604046BDE8F0811CB579A187
:1025800003C9CDE90001012000F06EF9052269467A
:102590003020FFF7D7FF052269461020FFF7B6FF6E
:1025A000002406E01DF80400A52800D003E0601C0C
:1025B000C4B2052CF6DB00BF052C01D001201CBDE8
:1025C0000020FCE770B505460C4600206449086011
:1025D000284600F0D1F80646204600F0CDF801204C
:1025E0005E49C1F89001304670BD70B504460020C8
:1025F0005B490860204600F0BFF8FF2000F0BCF8FF
:10260000054601205549C1F89001284670BD70B5B6
:102610000546022000F028F900204F4908600622F4
:102620002946A020FFF78EFF01205049C1F89001F4
:1026300000BF4B487C3800680028FAD10720FFF71C
:10264000D4FF044621462720FFF7BCFF04F010000A
:1026500028B1FF21E120FFF7B5FF102070BD04F085
:10266000200008B12020F9E7FF20F7E770B5044605
:10267000022000F0F9F80720FFF7B7FF05462946CA
:102680002720FFF79FFF05F0400050B106222146AA
:102690006120FFF73BFFFF21E220FFF793FF0020BF
:1026A00070BD0120FCE710B500202B490860052211
:1026B0002F492A20FFF746FF01212120FFF782FF43
:1026C00001212220FFF77EFF28212520FFF77AFF36
:1026D00006213120FFF776FF0F212620FFF772FF3A
:1026E0000F212020FFF76EFF01202049C1F8900143
:1026F00010BD10B500201849086005221D49302082
:10270000FFF720FF05221A492A20FFF71BFF0121AE
:102710002120FFF757FF01212220FFF753FF1A2145
:102720002420FFF74FFF28212520FFF74BFF0F2123
:102730002620FFF747FF0E212020FFF743FF01204F
:102740000A49C1F8900110BD001002400008014084
:10275000001001400030014090012142000022425F
:1027600090012242A5A5A5A5A500000000002142D8
:10277000C3610008BE6100080246002107E0481C52
:1027800081B24FF6FE70814201DB00207047404865
:10279000008900F002000028F1D03D48828100212C
:1027A00007E0481C81B24FF6FE70814201DB002039
:1027B000ECE73748008900F001000028F1D03448E8
:1027C0008089C0B2E2E700B53248806940F0040079
:1027D000304988610846806940F4805088612E48FD
:1027E0000068C0F313002C490860084600682B49B4
:1027F00008432949086028480C30006840F0E00090
:1028000025490C3108602248008821490880084683
:10281000008840F4007008800846008840F480700A
:1028200008800846008840F00400088008460088B8
:1028300008800846008840F00200088008460088AA
:1028400040F0010008800846008840F01800088029
:102850000846008808800846008840F0400008804C
:10286000FF20FFF789FF00BD00F007000849098835
:102870004FF6C7721140064A11801146098841EA95
:10288000C00111801146098841F040011180704754
:102890000030014000100240000801400000B0BBC1
:1028A00008B50121202000F031FD4FF40050ADF8B3
:1028B000000010208DF8030003208DF80200694607
:1028C000044800F067FA4FF40051024800F00FFB93
:1028D00008BD000000140140AB4A0A400243AB4B64
:1028E0001A6070470146072323EA01021202A74B30
:1028F0001B1D18684FF6FF031840A54B18431043E3
:10290000A24B1B1D186070472DE9F0478046894691
:1029100014461D462046E11704EB9171C1F3870A66
:10292000E11704EB91718910A4EB8101CFB204206F
:1029300000EBC700C7B22846FFF7D4FFC5F104007B
:1029400008FA00F60F20284100EA0900064306F0C5
:102950000F06202C09DA8F4801680120A0400143AE
:102960004FF0E020C0F800110BE08A48001D00681D
:10297000A4F1200101228A4010434FF0E021C1F868
:102980000401854810F80A0006FA07F10843C1B2AD
:10299000814800F80A10BDE8F08770B504460B4680
:1029A000CE1701EB9676C6F38700CE1701EB96762D
:1029B000B610A1EB8606B606350E784B9B6943F040
:1029C0000103764EB3614FEAB63353F820300F2639
:1029D000AE40B343724E46F82030334653F82030B1
:1029E00004FA05F61E436E4B43F820606D4B1B68DE
:1029F00001268E4033436B4E336002F0010343B136
:102A0000684B0C331B6801268E403343654E0C36F1
:102A1000336002F0020343B1624B08331E680123A6
:102A20008B401E435F4B08331E6070BD00B5002015
:102A30005A490861C8601420486100208861C86153
:102A40000846006840F001000860084640685649A2
:102A500008405249486008460068544908404F49B8
:102A600008600846006820F4802008600846406836
:102A700020F4FE0048600020886000214FF00060D4
:102A8000FFF72AFF00BD10B540480830006840F04D
:102A900004003E49083108604048C06940F0805059
:102AA0003E49C8614248406840F4807040494860EF
:102AB0000846006840F0040008600846006840F0DE
:102AC00002000860FDF782FB10BD3148001D2F4950
:102AD000091D0860704701464906304A926942F074
:102AE00001022E4B9A612E4A083A526822F0E062A7
:102AF0002B4B083B5A601A4652680A435A6070478B
:102B000030B504460025FFF791FF2448006840F4E3
:102B100080302249086000BF20480068400C00282F
:102B2000FAD04FF480601D494860A01EC4B2084628
:102B3000406840EA844048600846406840F480307D
:102B400048601C48006840F032001A490860134889
:102B5000006840F080701149086000BF0F480068AD
:102B6000400E0028FAD00D48406840F002000B49A2
:102B7000486005E009484068C0F3870505F0030593
:102B8000022DF7D130BD000080FFFF1F08ED00E0EF
:102B90000000FA0500E100E000E400E0001002405F
:102BA00008000140000401400000FFF8FFFFF6FEAE
:102BB0000070004000200240094880470948004753
:102BC000FEE7FEE7FEE7FEE7FEE7FEE7FEE7FEE7DD
:102BD000FEE7FEE704480549054A064B704700003A
:102BE0000B19000831010008F8000020F806002049
:102BF000F8020020F802002031490143314A1160F7
:102C0000704770B5002100230F22C47804B32D4C07
:102C1000246804F4E064C4F5E064210AC1F104030B
:102C2000CA40447804FA03F184781440214309012E
:102C3000254C0678A155047804F01F050124AC400A
:102C400005786D11AD0005F1E025C5F8004109E0FA
:102C5000047804F01F050124AC401C4D0678761161
:102C600045F8264070BD1A4A0A400243154B1B1F07
:102C70001A60704739B1134A121D12680243114B92
:102C80001B1D1A6006E00F4A121D126882430D4B8D
:102C90001B1D1A607047042808D14FF0E021096914
:102CA00041F004014FF0E022116107E04FF0E02114
:102CB000096921F004014FF0E02211617047000022
:102CC0000000FA050CED00E000E400E080E100E027
:102CD00080FFFF1F10B50446CC48844208D1012173
:102CE000042000F02DFB0021042000F029FB46E029
:102CF000C748844208D10121082000F021FB0021AF
:102D0000082000F01DFB3AE0C248844208D10121AE
:102D1000102000F015FB0021102000F011FB2EE028
:102D2000BD48844208D10121202000F009FB002188
:102D3000202000F005FB22E0B848844208D10121A0
:102D4000402000F0FDFA0021402000F0F9FA16E0E2
:102D5000B348844208D10121802000F0F1FA00211B
:102D6000802000F0EDFA0AE0AE48844207D101214C
:102D7000801500F0E5FA0021A01500F0E1FA10BD81
:102D800010B50121084600F0DBFA0021012000F017
:102D9000D7FA10BD2DE9F04102460025002600209B
:102DA00000230024002791F803C00CF00F0591F8D0
:102DB00003C00CF0100CBCF1000F03D091F802C05E
:102DC0004CEA050591F800C0BCF1000F31D0146841
:102DD00000202BE04FF0010C0CFA00F3B1F800C01A
:102DE0000CEA03069E4220D183004FF00F0C0CFA30
:102DF00003F7BC4305FA03FC4CEA040491F803C052
:102E0000BCF1280F06D14FF0010C0CFA00FCC2F8FF
:102E100014C00AE091F803C0BCF1480F05D14FF08F
:102E2000010C0CFA00FCC2F810C0401C0828D1D3D9
:102E30001460B1F800C0BCF1FF0F34DD546800200D
:102E40002EE000F1080C4FF0010808FA0CF3B1F87D
:102E500000C00CEA03069E4221D183004FF00F0C04
:102E60000CFA03F7BC4305FA03FC4CEA040491F89E
:102E700003C0BCF1280F05D100F1080C08FA0CF8CA
:102E8000C2F8148091F803C0BCF1480F07D100F1DB
:102E9000080C4FF0010808FA0CF8C2F81080401C2A
:102EA0000828CED35460BDE8F0814FF6FF71018051
:102EB000022181700421C17070470246002093688E
:102EC0000B400BB1012000E00020704701468868EC
:102ED00080B2704702460020D3680B400BB101203E
:102EE00000E0002070470146C86880B27047016169
:102EF0007047416170470AB1016100E0416170476C
:102F0000C16070474FF480320A43826181618261FF
:102F100082698269704702460020434B18684FF669
:102F20008073184040EA021008433F4B1860704716
:102F30003E49C8617047F0B50A46002300240021CD
:102F4000002500F00046B6F1004F02D1364EF1697F
:102F500001E0354E7168C0F3034583B200F44016BA
:102F6000B6F5401F08D121F070612F4E766826F02B
:102F700070662D4F7E6012E000F48016B6F5801F5B
:102F800006D1032606FA05F4A14341F0706106E07C
:102F9000460D360103FA06F6B14341F0706122B1E5
:102FA000460D360103FA06F6314300F00046B6F14D
:102FB000004F02D11C4EF16101E01B4E7160F0BD6B
:102FC00030B500228B071C0F0F2303FA04F2164BB7
:102FD00008338C1053F824309343134C08348D106D
:102FE00044F8253023468C1053F824308C07240FE6
:102FF00000FA04F423430C4C08348D1044F82530B7
:1030000030BD0A49DC31086070470000000801400B
:10301000000C014000100140001401400018014064
:10302000001C01400020014000000140000020423F
:10303000DF48006840F00100DD490860084640684C
:10304000DC490840DA49486008460068DA49084027
:10305000D74908600846006820F4802008600846C8
:10306000406820F4FE0048604FF41F0088607047FD
:10307000CF49096821F48031CD4A116011460968B1
:1030800021F480211160B0F5803F03D0B0F5802F8E
:103090000ED106E0C649096841F48031C44A116086
:1030A00007E0C349096841F4A021C14A116000E06A
:1030B00000BF00BF704710B501460022002300206A
:1030C0004A11012A02D1BA4C236806E0022A02D131
:1030D000B74C236A01E0B64C636A01F01F02012479
:1030E00094401C400CB1012000E0002010BD38B518
:1030F000002000900024002500BF3120FFF7DBFFF7
:1031000005460098401C00900098B0F5A06F01D0D3
:10311000002DF2D03120FFF7CEFF08B1012400E0EE
:103120000024204638BD01460020A14A106820F046
:10313000F80040EAC10010607047A049086070477D
:10314000024600209A4B586820F47C1042EA0103A2
:103150001843974B58607047984908667047014676
:103160000020934A506820F00300084350607047E5
:103170008F48406800F00C007047014600208C4AE0
:10318000506820F0F000084350607047014600206E
:10319000874A506820F4E060084350607047014659
:1031A0000020834A506820F4605040EAC10050601B
:1031B000704729B17E4A527A02437D4B5A7204E02D
:1031C0007B4A527A82437A4B5A7270477B49D83194
:1031D0000860704701460020754A506820F440405E
:1031E0000843506070470021714A20321170704AC4
:1031F00082F82010012802D004280AD104E001211D
:103200006B4A2032117005E00521694A20321170A5
:1032100000E000BF00BF704769490860704764491B
:10322000096A0143624A116270476549443908607E
:10323000704730B500210022002400235C4D6D68EA
:1032400005F00C0121B1042905D0082923D105E09E
:103250005C4D056022E05B4D05601FE0544D6D68DC
:1032600005F47012524D6D6805F48034022505EBAB
:1032700092421CB9544D554305600BE04C4D6D68AE
:1032800005F400351DB1504D5543056002E04D4D2C
:103290005543056002E04B4D056000BF00BF444D43
:1032A0006D6805F0F0010909484D6B5C0568DD406B
:1032B00045603F4D6D6805F4E061090A434D6B5C64
:1032C0004568DD4085603A4D6D6805F46051C90A76
:1032D0003E4D6B5C4568DD40C560354D6D6805F45D
:1032E0004041890B3A4D6B5CC568B5FBF3F5056150
:1032F00030BD29B12E4A526902432D4B5A6104E078
:103300002B4A526982432A4B5A61704729B1284A95
:1033100092690243264B9A6104E0254A92698243EE
:10332000234B9A61704729B1214AD2690243204B4D
:10333000DA6104E01E4AD26982431D4BDA617047AC
:1033400029B11B4AD2680243194BDA6004E0184ADB
:10335000D2688243164BDA60704729B1144A126969
:103360000243134B1A6104E0114A12698243104B65
:103370001A61704712494039086070470F49C864A4
:1033800070470B49C87170470948406A40F0807027
:1033900007494862704701460020054A92680A4082
:1033A0000AB1012000E0002070470149887270478F
:1033B000001002400000FFF8FFFFF6FE000042424E
:1033C0008004424200127A0000093D00740000208F
:1033D0008400002030B943F2DB028100A1F1C0413A
:1033E0000A6005E043F2D2028100A1F1C0410A6007
:1033F0006FF07042411C8900A1F1C0410A60810058
:10340000A1F1C041C1F80421704710280AD1182148
:103410004FF020421166402151664FF0FC31916619
:10342000D16610E01821F74A116040214FF0204288
:10343000C2F884104FF0FC31F24A083211604FF0AC
:103440002042C2F88C1070471820EE4920310860E5
:1034500000200906C1F8A4004FF0FC30E9492831EA
:103460000860091D0860091D08607047D0E9011255
:103470001143C268114302691143426911438269D1
:103480001143C2691143026A1143426A1143826ABD
:103490001143C26A1143026B114302689200A2F108
:1034A000C0421160816808290BD101688900A1F12F
:1034B000C041096841F0400201688900A1F1C041A2
:1034C0000A60416B0968426B526841EA0211426B23
:1034D000926841EA0221426B928941EA0241426BC1
:1034E000128A41EA0251426B127D41EA0261426B4B
:1034F000926911430268521C9200A2F1C04211600D
:10350000C16AB1F5804F1BD1816B0968826B52682B
:1035100041EA0211826B926841EA0221826B128AAF
:1035200041EA0251826B127D41EA0261826B92692B
:10353000114302689200A2F1C042C2F8041107E0F0
:103540006FF0704201688900A1F1C041C1F8042107
:10355000704730B5002100220023446844F008047D
:1035600085682C43C5682C4305692C43456944EAAA
:103570004524856944EA4531C4692468C5696D6894
:1035800044EA0524C5692D8944EA0544C5692D7BB3
:1035900044EA0562046A2468056A6D6844EA052401
:1035A000056A2D8944EA0544056A2D7B44EA0563D2
:1035B0000468102C05D14FF020442166A266E36612
:1035C00008E0904C21604FF02044C4F888208D4CD6
:1035D0000C34236030BD016841F01001426841EABB
:1035E0004221826841EA4231864A20321160C16834
:1035F0000968C268526841EA0221C268128941EA38
:103600000241C268127B41EA02617E4A283211609F
:10361000016909680269526841EA02210269128956
:1036200041EA02410269127B41EA0261754A2C3289
:103630001160416909684269526841EA02214269A0
:10364000128941EA02414269127B41EA02614FF06C
:103650002042C2F8B0107047002101600221416091
:1036600000218160C160016141618161C1610162CC
:103670004FF480514162490081620021C1620163BF
:103680000F21426B1160426B5160FF21426B9160D0
:103690000F21426BD160426B1161426B516100217D
:1036A000426B91610F21826B1160826B5160FF212F
:1036B000826B91600F21826BD160826B1161826B92
:1036C00051610021826B91617047102101600021DE
:1036D00041608160C160016141618161FC21C26919
:1036E0001160C2695160C2699160C269D160026AA9
:1036F0001160026A5160026A9160026AD16070478B
:103700000021016041608160FC21C2681160C268D3
:103710005160C2689160C268D1600269116002693B
:103720005160026991600269D16042691160426929
:103730005160426991604269D160704751B1820025
:10374000A2F1C042126842F001038200A2F1C0421D
:10375000136009E08200A2F1C04212682A4B1A40AD
:103760008300A3F1C0431A60704799B1102808D1B3
:103770004FF02042126E42F004024FF020431A66CE
:103780001DE0204A126842F004024FF02043C3F8C3
:10379000802014E0102809D14FF02042126E1A4BFD
:1037A000DB1E1A404FF020431A6608E0154A1268E3
:1037B000154BDB1E1A404FF02043C3F880207047A2
:1037C00048B110492031096841F004014FF020420E
:1037D000C2F8A01009E00B49203109680A4AD21E3C
:1037E00011404FF02042C2F8A0107047B9B1102824
:1037F0000CD14FF02042126E42F040024FF02043B5
:103800001A661FE0800000A0FEFF0F00724A1268D7
:1038100042F040024FF02043C3F8802012E010280D
:1038200008D14FF02042126E6C4B1A404FF02043EB
:103830001A6607E0684A1268684B1A404FF0204346
:10384000C3F88020704701460020102903D14FF0B3
:103850002042506F02E0604A14321068704710B581
:10386000F2B1102807D14FF020435B6E0B434FF0AD
:103870002044636632E0B0F5807F08D1564B1B1DB3
:103880001B680B434FF02044C4F8843026E0524BB1
:1038900024331B680B434FF02044C4F8A4301DE0D0
:1038A000102807D14FF020435B6E8B434FF020442C
:1038B000636613E0B0F5807F08D1474B1B1D1B6882
:1038C0008B434FF02044C4F8843007E0424B24334C
:1038D0001B688B434FF02044C4F8A43010BD10B5D2
:1038E000024600200023102A03D14FF02044636ECB
:1038F00009E0B2F5807F03D1374C241D236802E034
:10390000354C2434236803EA01040CB1012000E0A3
:10391000002010BD102807D14FF02042526E8A437C
:103920004FF020435A6613E0B0F5807F08D12A4A51
:10393000121D12688A434FF02043C3F8842007E029
:10394000254A243212688A434FF02043C3F8A4204A
:10395000704770B502460020002300240025102A7D
:1039600003D14FF02046736E09E0B2F5807F03D19A
:10397000194E361D336802E0174E2436336803EAC9
:10398000010403EAD10514B10DB1012000E00020CB
:1039900070BD102808D14FF02042526E22EAD102A9
:1039A0004FF020435A6615E0B0F5807F09D10A4AEE
:1039B000121D126822EAD1024FF02043C3F884207E
:1039C00008E0054A2432126822EAD1024FF020436F
:1039D000C3F8A42070470000800000A0BFFF0F00C4
:1039E00010B5431C02E010F8011B71B18107FAD138
:1039F0004FF0013202C88C1A8C4314EAC211F9D07C
:103A0000C01A0A0603D0C01E10BDC01A10BD0A0499
:103A100001D0801E10BD0902FCD0401E10BD7047B1
:103A20007047704700487047980000207546FFF7C0
:103A3000F9FFAE4605006946534620F0070085466B
:103A400018B020B5FFF7C6F8BDE820404FF00006DB
:103A50004FF000074FF000084FF0000B21F0070176
:103A6000AC46ACE8C009ACE8C009ACE8C009ACE8B9
:103A7000C0098D4670470446AFF300802046FCF72E
:103A80009EFB000001491820ABBEFEE726000200A5
:103A90007047491058BFC1F140415B1058BFC3F196
:103AA00040438B42EFF30080704700002DE9C04196
:103AB00030B4DFF8A0C23CEA111418BF3CEA13147A
:103AC00000F0EC8081EA03051CEA111444EAD57485
:103AD00018BF1CEA131500F0C780A4EB05044FF0D3
:103AE000004545EAC12145EAC32341EA505143EA72
:103AF000525304F17F74994204F500344FEAC02018
:103B00004FEAC22208BF904200F09C804FEA136542
:103B10000FF24016765D4FEA134506FB05F7C7F135
:103B2000807706FB07F74FEAD737A7FB0368764293
:103B3000C8F58038A7FB06CE38BFA8F1010807FBFF
:103B400008E64FF0000EA6FB028CE6FB03CEDCF18C
:103B5000000CCEF1004E38BFAEF1010EA6FB0C58A2
:103B60004FF000074FF00005E6FB0E87A1FB08C6EB
:103B7000A0FB07CE16EB0E0645F10005E1FB07653D
:103B800015F1E04E7EBFA4F580345FEA46066D4134
:103B900016F1800745F100054FEA17274FEA066640
:103BA00047EA0567A6F1DE46B6F1805F4FEA1525C4
:103BB0001FD9384624F0010C05EBC471BCF1FE6F2F
:103BC00001EB0C1102D8F0BCBDE8008124425CBFBF
:103BD00001F5801E9EEAC47F02D4F0BCBDE80081DE
:103BE000244238D4F0BCA1F1C041BDE8004100F04E
:103BF00057B94FEAD22242EA43524FEAD323A7FBF6
:103C000002864FEAD02040EA415007FB03661EEAD5
:103C10000E0F4FEAD12105FB026658BFA6EB0056F6
:103C2000B6EB00564FEA520E4EEAC37E18EB0E0E6C
:103C300056EB530EBDD518EB02085E417F1C55F1C3
:103C40000005B6E74FF480154FF000074FF000066F
:103C50004FF00008ADE7F0BC4FF0000001F1C041AB
:103C600001F00041BDE8008111EA0C1F0CEA1315B8
:103C700000D00CE013EA0C1F00F025804FF000008C
:103C8000F0BC81EA030101F00041BDE80081F0BC15
:103C900081EA0301BDE8004100F002B9F0BCBDE8D3
:103CA000004170B500F0AEF8097EFC3E00F007B8A8
:103CB00081EA03014FF0000001F00041704781EA02
:103CC000030100F0EDB8F0BC4FF000002249BDE860
:103CD00000417047FFFDFBF9F7F5F4F2F0EEEDEB74
:103CE000E9E8E6E4E3E1E0DEDDDBDAD8D7D5D4D3FA
:103CF000D1D0CFCDCCCBCAC8C7C6C5C4C2C1C0BF46
:103D0000BEBDBCBBBAB9B8B7B6B5B4B3B2B1B0AF4B
:103D1000AEADACABAAA9A8A8A7A6A5A4A3A3A2A12F
:103D2000A09F9F9E9D9C9C9B9A99999897979695EA
:103D300095949393929191908F8F8E8E8D8C8C8B86
:103D40008B8A89898888878786858584848383820E
:103D5000828181800000FF070000F87F10F00042A0
:103D600048BF4042B0FA80F310FA03F10AD0C3F121
:103D70001D0303F580634FEA415002EB035202EB4F
:103D8000D12170474FF000007047000051EA030C4A
:103D900017D41CF5801F58BFBCF5801F00F10680AA
:103DA000994218BF704708BF9042704707D711F576
:103DB000801F58BF13F5801F19D49942704789425C
:103DC00070471CF5801F08D5BCF5801FF7D58B42C6
:103DD00018BF704708BF824270474FF4001C1CEBAD
:103DE000410F38BF1CEB430F01D28B42704770B5B7
:103DF00000F008F8922449004FF000514FF0805332
:103E0000FFF747BE0EF1020E2EF0030E5EF8046BB4
:103E1000364205D4012A43EB030515F5001F12D8DD
:103E2000012841EB010C1CF5001F0CD80ED14FEA04
:103E3000D17C15F5001F0CEB4C0C0CF1020C08BFEB
:103E40004CEBD37C04E04FF0080C01E04FEAD37C4C
:103E50000CEB4C0526FA05F606F00706B6F1040C45
:103E600006D20EEB860CBDE870404CF0010C6047AA
:103E7000DFE80CF0090B02024FF000414FF00000A8
:103E8000A1F5002170BD19461046012851EB01042F
:103E900018BFD4F5001484BF002001F0004170BDAC
:103EA0000808A0F500114FEA31017047000000003A
:103EB00000000000000000000000040404040404EA
:103EC0000004000000140A0A0000000000000000C6
:103ED000000014143F140A3F0A0A000000041E15D3
:103EE00005060C14150F0400000012150D0A142C01
:103EF0002A1200000000040A0A1E151509360000E7
:103F00000002020100000000000000000020100874
:103F1000080808080810200000020408080808081B
:103F20000804020000000004150E0E150400000035
:103F300000000404041F040404000000000000004A
:103F4000000000000002020100000000001F00004D
:103F5000000000000000000000000000000200005F
:103F600000100808080404020202010000000E11FB
:103F700011111111110E00000000040604040404C4
:103F8000040E000000000E1111080402011F0000C1
:103F900000000E11100C1010110E00000000080C93
:103FA0000A0A091E0818000000001F01010F101066
:103FB000110E000000000E09010F1111110E00007A
:103FC00000001F09080404040404000000000E118E
:103FD000110E1111110E000000000E1111111E1012
:103FE000120E0000000000000400000000040000A9
:103FF000000000000004000000040400002010087D
:104000000402040810200000000000001F00001F30
:104010000000000000020408102010080402000044
:1040200000000E11110804040004000000000E112D
:104030001915151D011E0000000004040C0A0A1EBB
:104040001233000000000F12120E1212120F0000A5
:1040500000001E1101010101110E000000000F12ED
:1040600012121212120F000000001F120A0E0A0292
:10407000121F000000001F120A0E0A0202070000B1
:1040800000001C1201013911120C00000000331253
:10409000121E12121233000000001F040404040454
:1040A000041F000000003E0808080808080907006F
:1040B000000037120A060A0A123700000000070241
:1040C00002020202223F000000001B1B1B1B1515F1
:1040D0001515000000003B1216161A1A12170000E0
:1040E00000000E1111111111110E000000000F122D
:1040F000120E02020207000000000E11111111172A
:10410000190E180000000F12120E0A1212370000CA
:1041100000001E1101060810110F000000001F15FD
:1041200004040404040E00000000331212121212E0
:10413000120C000000003312120A0A0C04040000E2
:1041400000001515150E0A0A0A0A000000001B0AD5
:104150000A04040A0A1B000000001B0A0A040404E3
:10416000040E000000001F0908040402121F0000D2
:10417000001C04040404040404041C0000020202E1
:104180000404080808100000000E080808080808C1
:1041900008080E0000040A000000000000000000F3
:1041A00000000000000000000000003F00040000CC
:1041B000000000000000000000000000000C121CC5
:1041C000123C000000000302020E1212120E000048
:1041D00000000000001C1202021C00000000181069
:1041E000101C1212123C000000000000000C121EF5
:1041F000021C000000003804041E0404041E000019
:1042000000000000003C120C021E221C00000302F1
:10421000020E12121237000000000400000604040F
:10422000040E000000000800000C08080808080739
:1042300000000302023A0A0E1237000000000704D1
:1042400004040404041F000000000000000F151502
:104250001515000000000000000F121212370000B8
:1042600000000000000C1212120C00000000000000
:10427000000F1212120E020700000000001C1212A2
:10428000121C103800000000001B0602020700008C
:1042900000000000001E020C101E000000000004C0
:1042A000040E04040418000000000000001B121299
:1042B000123C0000000000000037120A0C0400004D
:1042C000000000000015150E0A0A000000000000A2
:1042D000001B0A040A1B0000000000000037120A3D
:1042E0000C04040300000000001E0804041E00006B
:1042F0000018080808040808080818000808080832
:10430000080808080808080800060404040804044B
:104310000404060002251800000000000000000050
:10432000000000000000000000000000000000008D
:104330000000000808080808080800001818000015
:1043400000486C2412000000000000000000000083
:104350000000002424247F1212127F121212000087
:104360000000081C2A2A0A0C1828282A2A1C0808D7
:1043700000000022251515152A5854545422000017
:104380000000000C1212120A76252911916E00000D
:10439000000606040300000000000000000000000A
:1043A00000402010100808080808081010204000DD
:1043B0000002040808101010101010080804020071
:1043C0000000000008086B1C1C6B080800000000BF
:1043D00000000000080808087F080808080000001E
:1043E00000000000000000000000000006060403BA
:1043F0000000000000000000FE00000000000000BF
:1044000000000000000000000000000006060000A0
:104410000000804040202010100808040402020020
:104420000000001824424242424242422418000046
:10443000000000080E08080808080808083E0000E8
:104440000000003C4242422020100804427E00004E
:104450000000003C4242201820404042221C000044
:10446000000000203028242422227E202078000012
:104470000000007E0202021A26404042221C000078
:10448000000000382402021A26424242241800008A
:104490000000007E2222101008080808080800000A
:1044A0000000003C4242422418244242423C0000A8
:1044B000000000182442424264584040241C00007E
:1044C000000000000000181800000000181800008C
:1044D00000000000000000080000000000080804C0
:1044E00000000040201008040204081020400000D2
:1044F0000000000000007F0000007F0000000000BE
:1045000000000002040810204020100804020000EF
:104510000000003C424246402010100018180000E5
:104520000000001C225A555555552D42221C0000F2
:104530000000000808181414243C224242E700003E
:104540000000001F2222221E22424242221F00009F
:104550000000007C4242010101010142221C0000D6
:104560000000001F2242424242424242221F0000FB
:104570000000003F4212121E12120242423F00008F
:104580000000003F4212121E121202020207000037
:104590000000003C2222010101712122221C0000A6
:1045A000000000E7424242427E42424242E70000AF
:1045B0000000003E0808080808080808083E000037
:1045C0000000007C10101010101010101010110FAF
:1045D0000000007722120A0E0A121222227700002F
:1045E000000000070202020202020202427F0000F3
:1045F00000000077363636362A2A2A2A2A6B00002F
:10460000000000E346464A4A5252526262470000A6
:104610000000001C2241414141414141221C000057
:104620000000003F424242423E02020202070000F6
:104630000000001C2241414141414D53321C6000A9
:104640000000003F4242423E1212222242C70000B6
:104650000000007C4242020418204042423E00001A
:104660000000007F4908080808080808081C000026
:10467000000000E74242424242424242423C0000C5
:10468000000000E742422224241414180808000005
:104690000000006B49494949555536222222000045
:1046A000000000E7422424181818242442E70000E0
:1046B000000000772222141408080808081C0000D3
:1046C0000000007E2120101008040442423F000038
:1046D000007808080808080808080808080878008A
:1046E00000000202040408080810102020204040A6
:1046F000001E1010101010101010101010101E00BE
:10470000003844000000000000000000000000002D
:10471000000000000000000000000000000000FF9A
:10472000000608000000000000000000000000007B
:10473000000000000000003C4278444242FC0000BF
:10474000000000030202021A26424242261A00001A
:10475000000000000000003844020202443800005B
:1047600000000060404040784442424264D800006B
:10477000000000000000003C427E0202423C0000BB
:10478000000000F08808087E08080808083E0000BD
:10479000000000000000007C22221C023C42423C3F
:1047A000000000030202023A4642424242E7000091
:1047B0000000000C0C00000E08080808083E00006D
:1047C0000000003030000038202020202020221E51
:1047D0000000000302020272120A16122277000081
:1047E0000000000E0808080808080808083E000035
:1047F000000000000000007F9292929292B70000A9
:10480000000000000000003B4642424242E7000038
:10481000000000000000003C42424242423C0000D6
:10482000000000000000001B26424242221E020738
:10483000000000000000007844424242447840E01A
:1048400000000000000000774C040404041F000076
:10485000000000000000007C42023C40423E00009C
:10486000000000000008083E0808080808300000A2
:1048700000000000000000634242424262DC00008F
:1048800000000000000000E7422424140808000093
:1048900000000000000000EB4949555522220000AD
:1048A000000000000000007624181818246E000094
:1048B00000000000000000E7422424141808080744
:1048C000000000000000007E22100808447E000066
:1048D00000C0202020202010202020202020C000E8
:1048E00010101010101010101010101010101010C8
:1048F0000006080808080810080808080808060044
:104900000C32C200000000000000000000000000A7
:10491000C9EE000027FC140414A481104208404092
:10492000104017FC2040E0E0215022482C46204057
:104930000040DBDA11041124112411241124FD2478
:10494000112411241124112411241D24E1244224B2
:1049500002040404CAD00200010000007FFC010030
:10496000010001003FF82108210821082108212821
:10497000211001000100C8AB0000000001800240CE
:104980000430180860061FF90100010001003FF81B
:104990000100010001007FFEB6AF00000000002012
:1049A0003E20007C002200227F22102210221222B0
:1049B0001222224223423D82009CB5E70000010002
:1049C00001001FF0610C410441047FFC41044104DB
:1049D00041047FFC01000102010201FCD7D3000069
:1049E00000003FF8001000600080010000807FFEA2
:1049F0000040004000200020002018400780BCBC80
:104A000010201020102013FEFC201020102015FC78
:104A100018843088D0481050102010505188260635
:104A2000CAF501000120011001107FFC0380054040
:104A300005400920111021084104810201000100F4
:104A40000100D3D002000200FFFE040004000FF0BA
:104A5000081018102FF0481088100FF008100810D8
:104A600008500820CFDE00007BF84A08520853F8AF
:104A7000620852084BF84A444A486A3052204210B1
:104A8000428843064200B9AB00800480048008409D
:104A9000084010202010420882060400044008202C
:104AA00010203FF010100000CBBE00003FF80008BF
:104AB00000087FE8000800081F8810881088108808
:104AC00010881F88108800280010BBB60080008066
:104AD000FC8004FC050449082A401440104028A02A
:104AE00024A045108110020804040802D3AD000080
:104AF0002080133C122402240224F22412241224C3
:104B000012B4132812201020282047FE0000C4FAF7
:104B10000900090011FC320454489950114812440C
:104B200014441140108002005104511290120FF0F1
:104B3000B4BF00000020102013FE202026244A24A9
:104B40007A241224222423FC7C20002204227822AE
:104B5000003CC9AB0000000004000FF01020202032
:104B60007FFC20842084208420843FF820002002C1
:104B700020021FFECCEE00000000204023FE20405B
:104B800079FC220423FC220423FC220423FC3A04A3
:104B900065FA01980204B3E40000010001007FFE01
:104BA00002200410040808043FFC044204400440AE
:104BB000044208421042607EBED800000000207E01
:104BC0003E804880488048FE48827F8208820C826E
:104BD00014FA12842280218040FED0CE0000000012
:104BE0007F842208223022C0220222047FC8223081
:104BF00022C222022204220822304040BBAD000023
:104C000000007FFE00000FF0111011101110511262
:104C10005FF25112511251124FF240027FFCD4B296
:104C2000000000007FFE47E24812481247E24FF2C0
:104C3000501250125112511242924472580A3FFCC3
:104C4000CDBC000000003FFE440247F24C225362FC
:104C5000408243625E1A41824062430240C2402267
:104C60003FFCC6AC000000402040204020403FFEFA
:104C70002000200020003FE02010201020102010F5
:104C800040104010CFD4000000003FFC200420045E
:104C90003FFC200420041FF82444144814481448FE
:104CA0000C5004407FFECABE000000003FFC000024
:104CB000000000007FFE00800890088810881084A3
:104CC0002084208240820780B2CB00000020082090
:104CD0007FFE002000783F881108089009207FFEA1
:104CE000018003400D30310C4002B5A500000010DA
:104CF000081004203FF8210421043FFC2104210472
:104D00003FF801007FFE010001000100D6D0000045
:104D10000100010001003FFC2104210421042104C1
:104D2000210421043FFC0100010001000100D3A285
:104D30000000000008207FFE0820092001003FF845
:104D40002108210821081FF4014002200C10700ED8
:104D5000CEC400000100010000803F7C0810081054
:104D600004100420022002400180018002601C180F
:104D7000E006D7DB00000000102011FE2202220214
:104D800049FC5800300013FE2528792401240D2405
:104D9000722202A2BACF000000000180024004305B
:104DA000180860061FF800001FF8200420042004E3
:104DB000200420041FF8C1C10000010001007FFE93
:104DC00000003FF820083FF83FF8400647C248245B
:104DD000082008221022603EB6C8000000000080B3
:104DE0003FFE44105FFC4410441043F040005FF865
:104DF0004408423041C04360BC1EB2E200000000E3
:104E000067C2145205520552C55225520552055229
:104E100015521752228222424442483ECAD4000010
:104E200000002014101417FE00120010601013F080
:104E3000109010901090149214EA1F0A0006B3CC40
:104E40000000000019FE7202120212027DFC18001E
:104E50001BFE3420502053FE10201020102013FE83
:104E6000D0F20000000000803FFE400047FC4208F6
:104E7000413040C05FFE40424042404440484040D4
:104E80004440B5F70000000023FE122202FA02227D
:104E9000E22212FE1272128A128A128A16BA1A427A
:104EA0001202040EB9E20000010001041108090811
:104EB000091009207FFE04400440044004400842D9
:104EC00008421042607CB0E60000000048FE490045
:104ED000490049007EFE41824144794445284528E5
:104EE0004510452846440382C8A800001000100061
:104EF00013FC7D0411041904188434885048505060
:104F000010201050108813041402CBF90000000088
:104F10003F7C204020403E40227E224422442244C6
:104F20003E8420842084408441044204B7A20100CE
:104F30001110110822003FFC0200040007F80A08C3
:104F40000908111010A0204040A003181C06CBCD6A
:104F500002082108111017FC00400040F04017FE25
:104F6000104010A0109011081208280047FE000001
:104F7000B3C90050004800403FFE2040204020447C
:104F80003E4422442228222822122A32444A4086C1
:104F90008102B9A6004000400040FE4011FC1044D0
:104FA000104410441044108410841E84F104410401
:104FB00002280410CAA701001100110011003FF8D7
:104FC000210041000100FFFE02800440044008204F
:104FD00010102008C006B0DC00407C4044405480E3
:104FE00054FE550856885488548854505450102004
:104FF0002850248845048202D7D40100020004000E
:105000001FF01010101010101FF0101010101FF0D3
:105010001010101010101FF01010B6AF004000401C
:105020007C40004001FC0044FE4420442044208495
:1050300048844484FD04450402280410CAD60010A4
:1050400000F83F00010001003FF8010001000100ED
:10505000FFFE010001000100010005000200C4A3E1
:105060001110111017FC1110FC0013F832083BF856
:10507000560853F8904017FC10A01110120814069F
:10508000CABD0048004400440040FFFE004000400C
:105090003E4008400840082008220F12780A2006E7
:1050A0000002CBD500000001E30001C38001C31C56
:1050B0007FFFFE01C30001C30001FB0000380000B8
:1050C00030C01FFFE00070C00071C00C71F01C61A7
:1050D000D81CE1DC38E1CE79C1CE01C1C00381C06A
:1050E000073F801C0F80780600000000C9EE00001A
:1050F000000000001000000800080C7FFC044010B5
:1051000001C8A002186042301832231812C30014DC
:10511000030004030C047FF0080F80080B40781391
:105120006018332018631818831C1903081803002B
:10513000000300000000DBDA0000000000000410A3
:105140000C04180C04108C04108C04108C04108CAB
:1051500004D08C3F108C04108C04108C04108C0430
:10516000108C04108C04108C05F08C0E208C782090
:105170008C20408C00808C01000C02000C00000090
:10518000CAD0000000000000003000001800001825
:105190000800001C1FFFE000180000182007FFF0A7
:1051A00004182004182004182004182004182004CF
:1051B00018200418200418200418200418E00418EB
:1051C00040001800001800000000D6D000000000C9
:1051D0000000000000000000001800001800001887
:1051E000000018003FFFFE30180630180630180681
:1051F0003018063018063FFFFE3018060018000071
:10520000180000180000180000180000000000003E
:1052100000000000CEC400000000000000000000FC
:105220003800001C00000600FFFFFF0600300600EB
:10523000300300600300600180C000C18000E30013
:10524000003600001C0000770003C1E01E003C6037
:105250000007000000000000000000000000B2E2B3
:1052600000000000000000000000000040000321DA
:10527000FF33398333118333019B33C19B33719BDC
:1052800033199B33019B33019B33119B3319B33388
:10529000303033306C0330C6036383032E01BE000D
:1052A0000000000000000000CAD400000000000060
:1052B0000000000000004000D83000CE1800C21CE2
:1052C00000C001FFFF0000C0F800C01800C019FFB7
:1052D000C01818401818601918601B18611E183182
:1052E0001C1FB139F01910000F0000000000000071
:1052F0000000D7D6000000000006000000030000F8
:105300000000C0000001C0C0000107C00001FF0094
:10531000021FFE0007F01C0007C070000F00E00035
:105320000E03F0001C0FF0003C0F70003C00E0008A
:105330001800C0000000C0000000C00000006000B5
:1053400000002000000037000001FF00007FF8008F
:1053500007F830001F8030000080300000C03000AF
:10536000006060000018E000000FC00000060000B0
:1053700000000000CCE5000000000000000000007C
:1053800000C0000000E0002001B800703FF800619C
:10539000FFC000C3030001C60600038C060003081B
:1053A0000C0006080C000E18183F1E101BF31F906F
:1053B0003F0700803C1C0190707C019060FE01A0C2
:1053C000C3F801A00FD803A0081803600018034019
:1053D000001803C000180380001803000018000024
:1053E0000018000000100000003000000030000035
:1053F000000000000000B2E2000000000000000019
:105400000000000000000000020C1008071FF80454
:1054100003BFF00201BC300303EC3003015C600306
:1054200000D8600300D860038098620361B8430726
:1054300071B14306313243063376C3063A64C70678
:105440003EECC0063E78C0063C3040067C7000064C
:1054500078E060067BFFF006F7C00006E400000677
:1054600040000006000000060000007C00008FF0F5
:1054700000007C0000000000CAD400000000000012
:1054800000000000000000003F0000007F800000DE
:105490000180000000C0000000C0000000CE0380BA
:1054A00000CFFFC000DD41800FFE0007FFFC000CB5
:1054B00000F000180FC03E19FF40F311BC608330AC
:1054C0007FE003B1FE2003338020037000300360CF
:1054D00000100360001807C0000C07C0000407801C
:1054E00000020100000300000001000000000000B5
:1054F00000000000000000000000CAAE0000000034
:1055000000000000000380000003C0000003C00092
:105510000003C0000003C0000003C0000003C0007F
:105520000003C0000003C0000003C0180003C03C1B
:105530007FFFFFFE0003C0000003C0000003C000A7
:105540000003C0000003C0000003C0000003C0004F
:105550000003C0000003C0000003C0000003C0003F
:105560000003C0000003C0000003C0000003C0002F
:105570000003C0000003800000000000BEC5000062
:1055800000000000000000180000001E0000001CC9
:105590000000001C0000001C0000001C0000001C9B
:1055A0000000001C1C001FFFFE000C1C1C00003C27
:1055B0001C00003C1C0000381C0000381C00003897
:1055C0001C0000381C0000781C0000701C000070DB
:1055D0001C0000F01C0000E01C0001C01C0C01C0FD
:1055E0001C0C03801C1C07001C1C0E001C1C0C0047
:1055F0001FFE38000FFC7000000000000000B0CB60
:10560000000000000000000000000000000070002A
:1056100000107800001E7000001C7000003C30007C
:10562000003C3000003C3800003C380000383800B6
:10563000003838000038180000381C0000781C00C2
:1056400000781C0000701E0000700E0000F00E00BC
:1056500000E00F0000E0070001C0078001C003C0A8
:10566000038003C0070001E0070000F00E0000FC0B
:105670001C00007E380000387000000000000000B0
:10568000C6DF000000000000000000060000000768
:10569000800000070000000700000007000000076E
:1056A000000000070000000700380007007C00072A
:1056B00003E000073F000007F000003F000003F791
:1056C00000003F070000700700000007000000070F
:1056D000000000070018000700180007001C000762
:1056E000001C0007001C0007001C0007001C00072E
:1056F000FFFE0003FFFC00000000000000000000AF
:105700000000C1F90000000000000000000C0000D3
:1057100000070000000780000003C0000003E00055
:105720000001E0000001C0000001C0180000003CC2
:105730007FFFFFFE000000000000000000000000EE
:10574000003C3000003E3800003C1C0000780E0099
:105750000078070000F0078000E003C001E001E0EE
:1057600001C001F0038000F0070000F80F0000788E
:105770000E0000781C00007830000030600000004F
:1057800000000000CEE50000000000000000000066
:105790000000000000701FFFFFF8000780000007F6
:1057A00000000007000000070000000700000007DD
:1057B0000000000F0000000F0000000E03800FFF2C
:1057C000FFC0000E0780000E0780001E0780001E2D
:1057D0000780001C0780001C0780001C0780001C3D
:1057E0000700001C0700003C0700003C07000038D1
:1057F00007180038073C7FFFFFFE00000000000094
:10580000000000000000BBB7000000000000000026
:10581000000000000000001C60FFFFFE7F800E0003
:1058200003801E0003801C0003801C0003803C00DA
:105830000380380003807E0003B07C007FFCFC0006
:105840000380FF000381FD800381DCE003839CF083
:1058500003879C78039F1C3C03FE1C3C03FC1C1C20
:105860000FB81C1C7E301C0078001C0030001C008F
:1058700000001C0000001C0000001C0000001C00B8
:105880000000180000000000CDD100000000000062
:105890000000000181800C31C3E00FF8E3C00E78F6
:1058A000F3800E7873000E7877000E7B06600E7B17
:1058B000FFF00FFB80E00E7B80E00E7B80E00E7B34
:1058C00080E00E7B80E00E7B80E00E7BFFE00FFB34
:1058D000F7E00E7BF7000E7877000E7877001C78E3
:1058E00077001C7877001C78771C1C78E71C1878E8
:1058F000E71C3878E71C3BF9C71C30F3879E706EB5
:1059000007FC601C000000000000B0D00000000098
:10591000000000000E3000000F3C00000F38C038BF
:105920000F3FFFFC7FFFE7380F38E7380F38E738C5
:105930000FF8E7380FF8E73801C0E73801C0E7385B
:1059400031C6E7383FFFE7383DCEFFF83DCEE038BF
:105950003DCEE0003FFEE0003DCEE00031C0E00083
:1059600001C0E00C01C7E00C7FFFE00C01C0E00CBF
:1059700001C0E01C01C0E01E01C0F01E01C07FFCA0
:1059800001C0000001C0000000000000D6D00000EF
:10599000000000000000000300000003C00000033E
:1059A00080000003800000038000000380000C03DF
:1059B00080700FFFFFF80E0380700E0380700E03DF
:1059C00080700E0380700E0380700E0380700E03D3
:1059D00080700E0380700FFFFFF00E0380700E03C7
:1059E0008070180380000003800000038000000323
:1059F000800000038000000380000003800000039B
:105A00008000000380000003000000000000D0C4FC
:105A10000000000000000000000000000000000086
:105A200000060000000780000003C0000001E00045
:105A30000001F0000060F0000078F000007C6000E1
:105A40000078000000780080067800E0067800F01A
:105A5000067800780E78007C0E78003C1E78003CBA
:105A60003E78039C3E78039C007803800078038096
:105A70000078038000780380003803C0003FFFC037
:105A8000001FFF8000000000000000000000000078
:105A9000D5FD000000000000000000000000000034
:105AA0000030000000780FFFFFFC0001E000000163
:105AB000E0000001E0000001E0000001E000000162
:105AC000E00001C1E00001F1E00001E1E0E001E1FE
:105AD000FFF801E1E00001E1E00001E1E00001E1A7
