:020000040800F2
:1000000048070020713E0008793E00087B3E00084A
:100010007D3E00087F3E0008813E00080000000091
:10002000000000000000000000000000833E000807
:10003000853E000800000000873E0008893E000859
:100040008B3E00088B3E00088B3E00088B3E00086C
:100050008B3E00088B3E00088B3E00088B3E00085C
:100060008B3E00088B3E00088B3E00088B3E00084C
:100070008B3E00088B3E00088B3E00088B3E00083C
:100080008B3E00088B3E00088B3E00088B3E00082C
:100090008B3E00088B3E00088B3E0008870200085C
:1000A0008B3E00088B3E00088B3E00088B3E00080C
:1000B0008B3E0008D90100088B3E00088B3E0008EB
:1000C0008B3E00088B3E00088B3E00088B3E0008EC
:1000D0008B3E00088B3E00088B3E00088B3E0008DC
:1000E0008B3E00088B3E00088B3E00088B3E0008CC
:1000F0008B3E00088B3E00088B3E00088B3E0008BC
:100100008B3E00088B3E00088B3E00088B3E0008AB
:100110008B3E00088B3E00088B3E00088B3E00089B
:100120008B3E00088B3E00088B3E00088B3E00088B
:1001300000F002F800F03AF80AA090E8000C8244BF
:100140008344AAF10107DA4501D100F02FF8AFF29C
:10015000090EBAE80F0013F0010F18BFFB1A43F0A5
:1001600001031847F0690000106A0000103A24BF2C
:1001700078C878C1FAD8520724BF30C830C144BF0C
:1001800004680C607047000000230024002500264E
:10019000103A28BF78C1FBD8520728BF30C148BFEA
:1001A0000B6070471FB51FBD10B510BD04F09AFD60
:1001B0001146FFF7F7FF00F0D6FD04F0B8FD03B4D9
:1001C000FFF7F2FF03BC04F0B9FD000030BF72B6C8
:1001D00062B680F308887047FE48008800F001008E
:1001E000C0B1FD480078012814D1FC480088401CAB
:1001F000FA49088008460088082803DC0020F849EE
:10020000086007E00120F64908600020F249087004
:10021000F2490880EF48008820F00100ED4908808D
:10022000704770B505460C46EE48C06940F00200C4
:10023000EC49C861E7481C300580001F0480E54890
:10024000001F008840F00100E249091F0880E148D2
:100250001038008840F00100DE4910390880022380
:100260001D220321012003F0ABFC70BD10B502225A
:100270000821DD4803F0EDFC022317220021084687
:1002800003F09EFC10BDD948006800F48070F0B106
:10029000D748007802281ADAD548007848B90020F3
:1002A000D44908600120D449C1F89801D3490860B5
:1002B00008E00020D1490860CF49C1F89801012029
:1002C000CC490860CA480078401CC94908704FF4FE
:1002D0008070C64908607047F8B5C94800780128A1
:1002E0003BD14FF6FF70EF231A46002100900846DD
:1002F00001F0DCFA00201123024677210090084625
:1003000001F0D1FB0020222302467721009008460D
:1003100001F0C9FB002033230246772100900846F4
:1003200001F0C1FB002044230246772100900846DB
:1003300001F0B9FB002055230246772100900846C2
:1003400001F0B1FB002066230246772100900846A9
:1003500001F0A9FB0020AA490870AA4800780028EB
:100360007ED1A348007802287BD10021084602F004
:1003700093FE02F08BFE0020A3490860A349C1F858
:10038000900101209D49091D08600020086001209E
:100390009D4908609D49C1F89001002400E20025B4
:1003A000F9E100209549091D086000BF00BF984889
:1003B0008068C6B201209549C1F8900100BF00BF16
:1003C0004FF6FF7000EA062600208C49091D0860E0
:1003D00000BF00BF8E488068C0B2064301208B4931
:1003E000C1F890018B480680EB2C14D2052C12D951
:1003F0000A2D10D9B5F59B7F0DD24EF660208642AE
:1004000009DB4FF6E850864205DC834804608348E8
:10041000056083480660782C18D2052C16D9052D66
:1004200014D9A02D12D247F2305086420EDA7D4800
:10043000008828447B4908807B48008820447A490A
:1004400008807A480088401C78490880782C1CD2A3
:10045000052C1AD9A02D18D9B5F59D7F15D801E026
:10046000A9E130E247F2305086420EDA7048008847
:1004700028446F4908806F48008820446D490880EF
:100480006D480088401C6C490880782C18D9EB2CEA
:1004900016D2A02D14D2052D12D947F23050864223
:1004A0000EDA664800882844644908806448008859
:1004B00020446349088063480088401C61490880E3
:1004C000782C19D9EB2C17D2A02D15D9B5F59D7F15
:1004D00012D847F2305086420EDA5B480088284432
:1004E000594908805948008820445849088058488C
:1004F0000088401C56490880EF2C69D140F23F101B
:100500008542FAD1474800884849098890FBF1F0B4
:1005100044490880444800884449098890FBF1F028
:1005200041490880424800884349098890FBF1F01E
:100530003F4908803F4800883F49098890FBF1F017
:100540003C4908803D4800883E49098890FBF1F00D
:100550003A4908803A4800883A49098890FBF1F006
:1005600037490880384800883949098890FBF1F0FC
:1005700035490880354800883549098890FBF1F0F5
:1005800032490880274800882C490988884206DAC1
:100590002A48008823490988401A02280CDB27488A
:1005A00000882049098888427EDA1E48008823494D
:1005B0000988401A022877DA1B4800881D490988F3
:1005C000884249DA1B48008817490988401A41E0E7
:1005D000E0E00000100400407A00002078000020D5
:1005E000B001214200100240000801401404014003
:1005F0000000002098812242008022428C8121420A
:100600005000002001000020B80124420080214257
:10061000001001400008006C380000203C00002061
:1006200040000020120000201400002022000020C2
:100630001600002018000020240000201A000020CE
:100640001C000020260000201E00002020000020AA
:100650002800002002280CDBF7480088F7490988A9
:1006600088422FDAF5480088F3490988401A0228A1
:1006700028DA0120F2490870F2480088F24908801F
:10068000EE480088F1490880F1480088F149088067
:10069000E9480088F0490880F0480088F04908805F
:1006A000F0480088F04900E00CE00880EF4800883E
:1006B000EF490880EF480088EF4908800120EF49A2
:1006C000087060E00C2003230090DE4802881421AB
:1006D000084601F005FB0C2003230090D748028850
:1006E0002821142001F0FCFA0C2003230090D848A4
:1006F00002881421A02001F0F3FA0C2003230090BB
:10070000CD4802882821A02001F0EAFA0C2003231A
:100710000090D24802887821142001F0E1FA0C20E0
:1007200003230090CF4802888C21142001F0D8FACE
:100730000C2003230090CD4802887821A02001F0EE
:10074000CFFA0C2003230090CA4802888C21A020F5
:1007500001F0C6FA0020BB490880B8490880BC49AE
:100760000880B5490880BD490880BE490880BF4956
:100770000880C0490880C2490880C2490880C2492F
:100780000880C24908800020C1490860C14908604A
:10079000C14908606D1CB5F5A07FFFF402AE641C72
:1007A000F02CFFF4FCAD4FF48070BC4908600020D1
:1007B000BB49087087E0BA4800780228FAD10020C7
:1007C000B8490860B849C1F890010120B7490860EC
:1007D000002008600120B3490860B349C1F89001C6
:1007E000002467E0002561E03CB935B90020B0493C
:1007F0000880B0490880B04908800020AB490860F3
:1008000000BF00BFAD488068C6B20120A649C1F84C
:10081000900100BF00BF4FF6FF7000EA06260020DF
:10082000A249086000BF00BFA4488068C0B2064368
:1008300001209D49C1F890018348008885421ED956
:100840008448008885421AD280480088844216D99C
:1008500085480088844212D24FF6FF7086420ED13E
:100860009348008828449249088092480088204490
:100870009049088090480088401C8F490880EF2CE0
:1008800013D140F23F1085420FD1894800888A4930
:10089000098890FBF1F086490880864800888649DF
:1008A000098890FBF1F0834908806D1CB5F5A07FA5
:1008B0009AD3641CF02C95D34FF48070774908606C
:1008C0000020774908705E48007801280AD17848EE
:1008D000008840B97748008828B900207849088006
:1008E0007849088088E04FF6FF70EF231A46002110
:1008F0000090084600F0DAFF4FF61960EF2340F24F
:100900003F1200210090F02000F0D0FF00201123C2
:10091000024677210090084601F0C5F80020222306
:10092000024677210090084601F0BDF800203323ED
:10093000024677210090084601F0B5F800204423D4
:10094000024677210090084601F0ADF800205523BB
:10095000024677210090084601F0A5F800206623A2
:10096000024677210090084601F09DF85048008823
:1009700035490988401ACC21484336490988324A0A
:100980001288891A90FBF1F011304D4908804948CE
:1009900000882E490988401ACC21484332490988E9
:1009A0002A4A1288891A90FBF1F0113045490880D3
:1009B0000C2003230090424802881421084601F0CD
:1009C0008FF90C20032300903E4802882821142030
:1009D00001F086F90C20032300903B48028878211F
:1009E000142001F07DF90C20052300903748A02148
:1009F0000268142001F074F9F8BDF8B528480078B1
:100A0000022818D10021084602F046FB02F03EFB06
:100A10000020244908602449C1F89001012023499D
:100A200008600020086001201E4908601E49C1F8C6
:100A30009001002473E084E01800002014000020DE
:100A4000010000201200002002000020040000200D
:100A50001600002006000020080000201A000020D8
:100A60000A0000201C0000200C0000201E000020B6
:100A70000E00002020000020100000205000002068
:100A80002200002024000020260000202800002052
:100A900040000020380000203C00002014040140E9
:100AA00000000020B80124420080214290812142B0
:100AB0002A0000202C0000203200002000100140FD
:100AC000340000203600002096000020580000204E
:100AD000002620E00020FE490860FE488068C5B27C
:100AE0000120FD49C1F890014FF6FF7000EA05258D
:100AF0000020C1F89001F7488068C0B2054301208A
:100B0000C1F89001F54805800A2C03D10A2E01D1C5
:100B1000F3480560761CB6F5A07FDBD3641CF02C8F
:100B2000D6D30C2005230090ED4814210268084616
:100B300001F0D6F84FF48070EA4908600020EA49D5
:100B40000870F8BD70B5E848007802283DD1002152
:100B5000084602F0A1FA02F099FA0020E349086081
:100B6000DD49C1F890010120D949086000200860E2
:100B70000120DE490860D849C1F8900100251AE03B
:100B80000020D3490860D3488068C4B20120D2490C
:100B9000C1F890014FF6FF7000EA04240020C1F86C
:100BA0009001CC488068C0B204430120C1F8900194
:100BB000CA4804806D1CB5F5963FE1D34FF48070B0
:100BC000C84908600020C849087070BDC84800883E
:100BD000772814DBC7480088772810DBC4480088D2
:100BE00077384043C34909887739C24A1288773A2F
:100BF00001FB0200C04908600120C0490870BC48E0
:100C00000088772815DCBB480088772811DBB848B6
:100C10000088C0F177004043B64909887739B54A62
:100C20001288773A01FB0200B34908600120B349FA
:100C30000870AF480088772817DCAE48008877280E
:100C400013DCAB480088C0F177004043A94909880C
:100C5000C1F17701A74A1288C2F1770201FB0200B5
:100C6000A54908600220A5490870A1480088772896
:100C700016DBA0480088772812DC9D48008877386A
:100C800040439C490988C1F177019A4A1288C2F110
:100C9000770201FB0200984908600220974908701A
:100CA00070470EB59648007801285BD190480088BF
:100CB000642190FBF1F03030924908708C48008834
:100CC000642190FBF1F201FB12000A2190FBF1F08C
:100CD00030308C494870864800880A2190FBF1F238
:100CE00001FB1200303087498870824800886421F7
:100CF00090FBF1F030308349C8707E480088642151
:100D000090FBF1F201FB12000A2190FBF1F0303070
:100D10007C490871774800880A2190FBF1F201FBB9
:100D2000120030307749487100208871084601F080
:100D300038FE20280BD10020102173A21F23CDE9FB
:100D400000210290DA021E2101F032FA0AE00020AE
:100D500010216FA21F23CDE900210290DA021E218B
:100D600001F026FA0EBD0EB500BF01F04CFB01F0FC
:100D700071FA02F0A3FA02F0D3FB01F027FD01F0B3
:100D800059FF41F61F4141F28730FFF74AFA4721E8
:100D900044F6206001F0B8FB5F4800885F49088096
:100DA0005F480088091D088001F070FC0EE00120FA
:100DB00010215CA21F23CDE900210290DA023C2120
:100DC000002001F0F5F9C82001F081FA02F0A8FB3B
:100DD0000028ECD10120102156A21F23CDE90021CB
:100DE0000290DA023C21002001F0E2F9FFF73EFA1E
:100DF0004FF4A073F022AE210A2002F020FD002063
:100E00003A49091D08604FF6FF70EF231A4600218A
:100E10000090084600F04AFD1F20EF2340F23F12E9
:100E200000210090184600F041FD0EE00120102145
:100E300044A21F23CDE900210290DA0250210020B4
:100E400001F0B6F9C82001F042FA01F061FD002876
:100E5000ECD10120102140A21F23CDE900210290F6
:100E6000DA025021002001F0A3F901F00CFE0EE09F
:100E7000012010213DA21F23CDE900210290DA02BA
:100E80005021002001F094F9C82001F020FA01F06F
:100E900057FF0028ECD1012010213AA21F23CDE9F1
:100EA00000210290DA025021002001F081F901F0C6
:100EB000DEFF3948806940F00400374988613748CF
:100EC000006820F47020354908600846006867E033
:100ED0009081214200100140008021420008006CF6
:100EE000400000201404014000000020B80124420A
:100EF0003400002036000020580000207B00002035
:100F0000010000206A000020535543430000000008
:100F10004C4F5345000000005C0000203C2C014079
:100F20005E0000204F5637363730204572726F72A0
:100F3000212100004F563736373020496E69742022
:100F40004F4B00004E524632344C303120496E69CE
:100F500074206572726F72004E524632344C3031DA
:100F600020496E6974204F4B000000004E524632FB
:100F7000344C30312A3220496E6974206572726FA8
:100F8000720000004E524632344C30312A32204931
:100F90006E6974204F4B00000010024004080140AD
:100FA00040F440300860FE480068FE490840FC49B3
:100FB000086000202021FCA24FF61963CDE9002132
:100FC00002901F227821F02001F060F804E1FFF781
:100FD00083F9FFF766FEFFF7F9FDF64801F02AFFF7
:100FE0000028F3D1F34840783038F2490978303995
:100FF00001EB810100EB4100EF490880EF480088D8
:1010000001287CD108460088092811D1EC480088C5
:10101000401DEB49088008460088EA4908800C20FA
:1010200004230090E64802881421084600F058FE88
:10103000E14800880A2811D1E1480088401FE049B2
:10104000088008460088DF4908800C2004230090AF
:10105000DB4802881421084600F042FED64800888A
:10106000072812D1D8480088401FD7490880084671
:101070000088D449091D08800C2004230090D24820
:1010800002882821142000F02BFECB480088082875
:1010900012D1CD480088401DCB4908800846008801
:1010A000C849091D08800C2004230090C648028806
:1010B0002821142000F014FEBF4800880B2802D11C
:1010C0000120C2490870BC4800880C2802D10020C9
:1010D000BF490860B84800880F287DD10020B74973
:1010E00008802021BBA24FF61963CDE900210290B0
:1010F0001F227821F02000F0C9FFBEE3FFE7AE48D1
:101100000088012869D14FF4B460AD4908800846D1
:101110000088AC49088040F2C440AB4908800846CA
:101120000088A849091D08800020A94908604FF4DB
:101130007A7001F0CCF84FF47A7001F0C8F84FF4EF
:101140007A7001F0C4F8FFF7C7F80120A349C1F88D
:10115000B00100BFA2480088832808DD98480088B5
:10116000001D9749088008460088964908809C48D9
:1011700000886B2808DA92480088001F9049088090
:10118000084600888F490880964800886B2809DA4D
:101190008D480088001D8C490880084600888949D0
:1011A000091D08808F480088832809DD864800884B
:1011B000001F85490880084600888249091D08806B
:1011C0004FF4FA7001F083F80020814908604FF471
:1011D0007A7001F07CF801E04FE335E04FF47A706B
:1011E00001F075F84FF47A7001F071F8FFF774F8B8
:1011F00001207A49C1F8B001FFF753FD6D4801F0B5
:1012000019FE80B96B48407830386A49097830391E
:1012100001EB810100EB4100674908800846008826
:101220000D2800D106E36E48008883280BDA6C484D
:1012300000886B2807DD6B4800886B2803DD694850
:101240000088832800DB85E75B48008802287DD181
:1012500000205F490860FFF73FF8FFF7B7FC00BFC9
:101260006148007801281DD16048006840F284413F
:10127000884208D952480088801C51490880084695
:1012800000885049088059480068B0F5917F26D2FF
:101290004B480088801E4A49088008460088494912
:1012A00008801CE05148006840F28441884208D917
:1012B00043480088801E424908800846008841490A
:1012C00008804A480068B0F5917F08D23C48008801
:1012D000801C3B490880084600883A4908804FF442
:1012E000FA7000F0F4FF002039490860FEF7F4FFBF
:1012F000FFF7D7FC2F4801F09DFD80B92D484078BD
:1013000030382C490978303901EB810100EB41007C
:1013100029490880084600880D2800D18AE2FFF795
:1013200055FC0C20052300903048A02102681420B1
:1013300000F0D6FC2D480068B0F5917F0BD32B4808
:10134000006840F28441884205D800E004E00120B2
:101350001F49086000E083E71748008803287DD113
:1013600000201B490860FEF7B7FFFFF72FFC00BF06
:101370001D480078012847D11C48006840F6292103
:10138000884208D90E480088801C0D49088008460C
:1013900000880C4908801548006840F2844127E025
:1013A0000C0801401111101173686F75646F6E673E
:1013B000000000007100002096000020680000205E
:1013C0005C0000203C2C01405E0000207A000020E0
:1013D000B00121427A69646F6E670000000021420B
:1013E00034000020360000207B0000205800002040
:1013F000884227D8FD480088801EFC49088008469E
:101400000088FB4908801DE0FA48006840F6292161
:10141000884208D9F5480088801EF44908800846AB
:101420000088F3490880F348006840F2844188420C
:1014300008D8EE480088801CEC49088008460088DF
:10144000EB4908804FF4FA7000F041FF0020EA49B0
:101450000860FEF741FFFFF724FC00E030E0E748BA
:1014600001F0E8FC80B9E54840783038E349097874
:10147000303901EB810100EB4100E1490880084669
:1014800000880D2800D1D5E1FFF7A0FB0C20052333
:101490000090D848A0210268142000F021FCD54813
:1014A000006840F28441884209D9D248006840F679
:1014B0002921884203D80120CF49086000E057E77E
:1014C000CF48008804287CD10020CB490860FEF773
:1014D00003FFFFF77BFB00BFCA48007801281ED13D
:1014E000C448006841F21021884208D9BF480088EA
:1014F000801CBE49088008460088BD490880BD4858
:10150000006840F62921884227D8B8480088801E04
:10151000B649088008460088B54908801DE0B548EE
:10152000006841F21021884208D9B0480088801E26
:10153000AE49088008460088AD490880AD4800687B
:1015400040F62921884208D8A8480088801CA7496D
:10155000088008460088A64908804FF4FA7000F019
:10156000B6FE0020A4490860FEF7B6FEFFF799FB1F
:10157000A24801F05FFC80B9A048407830389F490C
:101580000978303901EB810100EB41009C4908806A
:10159000084600880D2800D14CE1FFF717FB0C200E
:1015A000052300909348A0210268142000F098FBC6
:1015B0009048006840F6292188420BD98D48006880
:1015C00000E008E041F21021884203D801208A4956
:1015D000086000E080E78A48008805287ED1002066
:1015E00085490860FEF778FEFFF7F0FA00BF8548EE
:1015F000007801281ED17F48006841F639418842B1
:1016000008D97A480088801C7849088008460088F4
:10161000774908807748006841F21021884227D82E
:1016200072480088801E7149088008460088704909
:1016300008801DE06F48006841F63941884208D9AA
:101640006A480088801E6949088008460088684901
:1016500008806848006841F21021884208D8634831
:101660000088801C6149088008460088604908801D
:101670004FF4FA7000F02BFE00205F490860FEF77F
:101680002BFEFFF70EFB5D4801F0D4FB80B95B48F1
:101690004078303859490978303901EB810100EB45
:1016A000410057490880084600880D2800D1C1E054
:1016B000FFF78CFA0C20052300904E48A021026809
:1016C000142000F00DFB4B48006841F210218842C5
:1016D0000BD94848006841F6394100E006E08842ED
:1016E00003D801204449086000E080E744480088AE
:1016F00006287AD1002040490860FEF7EDFDFFF78B
:1017000065FA00BF3F48007801281ED139480068BB
:1017100042F6A401884208D934480088801C334925
:10172000088008460088324908803248006841F63F
:101730003941884227D82D480088801E2B490880CF
:10174000084600882A4908801DE02A48006842F6B9
:10175000A401884208D925480088801E23490880B2
:1017600008460088224908802248006841F639412D
:10177000884208D81D480088801C1C4908800846FB
:1017800000881B4908804FF4FA7000F0A0FD00208B
:1017900019490860FEF7A0FDFFF783FA174801F02A
:1017A00049FB80B9154840783038144909783039F8
:1017B00001EB810100EB41001149088008460088D7
:1017C0000D2800D136E0FFF701FA0C200523009028
:1017D0000848A0210268142000F082FA0A48008814
:1017E000B0B90A48008898B98CE722E05C00002074
:1017F0003C2C014058000020B00121427100002023
:10180000960000207B0000203400002036000020DD
:101810001B48006841F63941884209D918480068D8
:1018200042F6A401884203D801201649086000E06E
:1018300068E700BF144800880B2802D10120134933
:101840000870114800880C2802D100200D4908605A
:101850000D480088102810D101200D490880002073
:101860002021AFF2BC424FF61963CDE9002102906E
:101870001F227821F02000F009FCFFF7A8BB000030
:1018800058000020B0012142960000207A0000207C
:101890006800002070B505460E46144631462846BD
:1018A00001F0FAFB204601F0E6FB70BD2DE9F84F90
:1018B00006460F4614461D46DDF82890A01B401C26
:1018C0001FFA80FAE81B401C1FFA80FB0BFB0AF092
:1018D0000090681E83B2601E82B23946304601F025
:1018E00001FC4FF0000804E0F748A0F8009008F170
:1018F000010800988045F7D3F4484088401E83B221
:10190000F2480088401E82B20021084601F0EAFB3E
:10191000BDE8F88F2DE9FF4F85B081468A4600204B
:10192000049003900798A0EB09050898A0EB0A061D
:10193000CDF80890CDF804A0002D01DD012705E0C9
:101940000DB9002702E04FF0FF376D42002E02DD97
:101950004FF0010806E016B94FF0000802E04FF022
:10196000FF387642B54201DD2C4600E034464FF0A8
:10197000000B21E0019A91B2029A90B201F0A6FB0D
:101980000498284404900398304403900498A0429B
:1019900005DD0498001B04900298384402900398D7
:1019A000A04205DD0398001B03900198404401907C
:1019B0000BF101001FFA80FB601C8345DADD09B0E2
:1019C000BDE8F08F2DE9F04104460D4616461F464E
:1019D0002B46324629462046FFF79CFF3B462246CF
:1019E00029462046FFF796FF3B46324639462046B9
:1019F000FFF790FF3B46324629463046FFF78AFF05
:101A0000BDE8F081F8B504460D4616461F46B048BD
:101A100000883B463246294600902046FFF746FFA5
:101A2000F8BD2DE9F04104460D4616461F46DDF887
:101A30001880EA1991B2A21990B24246FFF72AFF24
:101A4000EA1991B2A21B90B24246FFF723FFEA1BAC
:101A500091B2A21990B24246FFF71CFFEA1B91B265
:101A6000A21B90B24246FFF715FFAA1991B2E219E4
:101A700090B24246FFF70EFFAA1991B2E21B90B254
:101A80004246FFF707FFAA1B91B2E21990B2424605
:101A9000FFF700FFAA1B91B2E21B90B24246FFF78C
:101AA000F9FEBDE8F0812DE9FF4F81B0824617466F
:101AB0009846DDF838B0002445464FEA4800C0F1AA
:101AC0000306BBF1000F1FD01BE0A14608E04B4608
:101AD0002246009750460299FFF7A3FF09F101093A
:101AE000A945F4DD002E04DA042000FB0460861D05
:101AF00006E0601B042101FB006000F10A066D1E78
:101B0000641CAC42E1DD18E015E02B46224600974C
:101B100050460299FFF785FF002E04DA042000FBEF
:101B20000460861D06E0601B042101FB006000F1DB
:101B30000A066D1E641CAC42E7DD05B0BDE8F08FFF
:101B40002DE9FF4F83B081468A469346DDE9106454
:101B50005F4800880290A6F12000C6B204EBD47062
:101B600009EB6000401E82B20AEB0400401E83B203
:101B700051464846019401F0B5FA129850BB002531
:101B800025E00C2C07D106EB4600524901EB800002
:101B900010F8058004E0504800EB061010F80580AE
:101BA00000270DE008F0010018B1584601F063FA73
:101BB00002E0069801F05FFA4FEA6808781CC7B2A5
:101BC00004EBD471B7EB610FECDB681CC5B2A54226
:101BD000D7DB2DE0002529E00C2C07D106EB4600D1
:101BE0003C4901EB800010F8058004E03A4800EB26
:101BF000061010F80580002711E03548A0F800B065
:101C000008F0010038B10AEB050291B209EB0702B6
:101C100090B201F05BFA4FEA6808781CC7B204EB97
:101C2000D471B7EB610FE8DB681CC5B2A542D3DB0A
:101C300027490298088025484088401E83B22348DF
:101C40000088401E82B20021084601F04BFA07B01E
:101C5000BDE8F08F2DE9FE4306460F4615461C46AB
:101C6000DDF828801DE019480088401EB04204DBE2
:101C700016484088401EB84201DABDE8FE8320784D
:101C80008DE82101154803881148028839463046FD
:101C9000FFF756FF284605EBD07106EB61018EB2C7
:101CA000641C20787E2802DC20782028DBDA00BF44
:101CB000E3E710B50246012000E050430B00A1F11C
:101CC0000104E1B2F9D110BD0008006CD40000207D
:101CD000BA0000204A4D0008BE510008BC00002098
:101CE0002DE9FF4F83B0074691461E46109C4FF0EA
:101CF000000A002543E0701B401EC1B20A20FFF716
:101D0000D8FFB9FBF0F00A21B0FBF1F201FB120899
:101D1000BAF1000F1BD1701EA84218DDB8F1000FF8
:101D200013D100202021A346CDE90014029004EB3A
:101D3000DB71491001FB057188B2FD490B88FD4933
:101D40000A880499FFF7FCFE17E04FF0010A002112
:101D500008F13000C0B2A346CDE90141009004EB88
:101D6000DB71491001FB057188B2F1490B88F1491B
:101D70000A880499FFF7E4FE00BF681CC5B2B542AB
:101D8000B9DB07B0BDE8F08F2DE9FC5F054688465A
:101D900091469A46DDF830B000952E20019000243F
:101DA0005FE004EB0410E44911F810009BF8001008
:101DB000884253D104EB0410DF4901EB4000407826
:101DC0009BF80110884249D108F10F0083B205F158
:101DD0000F0082B24146284601F084F900263BE01C
:101DE000002734E00D9890B904EB0410D24901EBC0
:101DF0004000801C805D80213941084018B1484670
:101E000001F039F921E0504601F035F91DE0C948EB
:101E1000A0F8009004EB0410C74901EB4000801CBF
:101E2000805D80213941084018B14146284601F0C3
:101E30004DF9681C85B20098281A102805D1009D1C
:101E400008F101001FFA80F803E0781CC7B2082FE0
:101E5000C8DB00BF701CC6B2202EC1DB00BF601CF7
:101E600084B2019884429CDBB4484088401E83B20F
:101E7000B2480088401E82B20021084601F032F9C3
:101E8000BDE8FC9F2DE9FC5F0546884691469A46D1
:101E9000DDF830B0009507200190002467E004EBE6
:101EA000840000EB4410A64911F810009BF80010C4
:101EB000884259D104EB840000EB4410A04901EBA7
:101EC000400040789BF8011088424DD108F117007E
:101ED00083B205F1170082B24146284601F002F9AB
:101EE00000263FE0002738E00D98A0B904EB8400FD
:101EF00000EB4410924901EB4000801C805D802182
:101F00003941084018B1484601F0B5F823E0504681
:101F100001F0B1F81FE08748A0F8009004EB8400BE
:101F200000EB4410864901EB4000801C805D80215D
:101F30003941084018B14146284601F0C7F8681CED
:101F400085B20098281A182805D1009D08F10100D3
:101F50001FFA80F803E0781CC7B2082FC4DB00BF6B
:101F6000701CC6B2482EBDDB00BF601C84B2019855
:101F7000844294DB71484088401E83B26F480088D9
:101F8000401E82B20021084601F0ACF8BDE8FC9F7B
:101F90002DE9FC5F0546884691469A46DDF830B04B
:101FA00000951420019000245FE004EB8410654943
:101FB00011F810009BF80010884253D104EB8410F4
:101FC000604901EB400040789BF80110884249D1FC
:101FD00008F11F0083B205F11F0082B24146284676
:101FE00001F080F800263BE0002734E00D9890B91E
:101FF00004EB8410534901EB4000801C805D80217C
:102000003941084018B1484601F035F821E0504602
:1020100001F031F81DE04748A0F8009004EB84106F
:10202000484901EB4000801C805D80213941084017
:1020300018B14146284601F049F8681C85B200985D
:10204000281A202805D1009D08F101001FFA80F808
:1020500003E0781CC7B2082FC8DB00BF701CC6B2F3
:10206000802EC1DB00BF601C84B2019884429CDBDF
:1020700032484088401E83B230480088401E82B2F9
:102080000021084601F02EF8BDE8FC9F2DE9FF4F26
:1020900083B0064688469146DDE91147109DB24659
:1020A0004FF0000B7EE0BBF1000F4DD104EBD4717B
:1020B000224A1288A2EB6101B14204DB1F49498820
:1020C000091B414502DA07B0BDE8F08F2878802867
:1020D00002DD4FF0010B65E028780D2806D108EBF2
:1020E00004001FFA80F856466D1C1EE0102C0DDD12
:1020F000102128788DE883004A4641463046069BE9
:10210000FFF71EFD06F1080086B20EE028788DE884
:1021100091004A4641463046069BFFF711FD204696
:1021200004EBD07106EB61018EB26D1C3AE0000049
:10213000BC000020BA000020AE570008D4000020E8
:10214000CA5D0008D05F000841480088001BB0420B
:1021500004DB3F484088001B404500DAB3E74FF0FE
:10216000000B202C08D1CDE900574A4641463046A5
:10217000069BFFF70DFF12E0182C08D1CDE90057A0
:102180004A4641463046069BFFF77CFE07E0CDE914
:1021900000574A4641463046069BFFF7F5FDAD1C09
:1021A000301986B2287800287FF47DAF00BF8AE717
:1021B0002DE9FF4F83B004460F469046DDE9119AA2
:1021C000109D284602F068FD86B221490988A1EBDE
:1021D000C60000EBD071C1F34F0B04EB0B0188B2CA
:1021E0008DE8200642463946069BFFF74FFF07B0B1
:1021F000BDE8F08F2DE9F04706460F46154607F17A
:10220000270083B206F1270082B23946304600F03B
:1022100069FF00240AE015F8149005EB440090F8DB
:10222000018049EA082000F022FF641CB4F5C86F61
:10223000F1DB07484088401E83B205480088401EF5
:1022400082B20021084600F04DFFBDE8F087000093
:10225000D400002010B56FF0040001F078FE2E4885
:1022600000682E49B0FBF1F02D490870084600784F
:1022700000EB4001C1EBC0104FF6FF7101EAC00056
:102280002849088010BD0146254A12784A434FF07C
:10229000E0235A6100229A611A46126942F0010253
:1022A0001A6100BF4FF0E022106900F001021AB17C
:1022B00000F48032002AF5D04FF0E022126922F0BB
:1022C00001024FF0E0231A6100229A617047014633
:1022D000144A12884A434FF0E0235A6100229A615F
:1022E0001A46126942F001021A6100BF4FF0E02263
:1022F000106900F001021AB100F48032002AF5D012
:102300004FF0E022126922F001024FF0E0231A613F
:1023100000229A61704700008000002000127A00BD
:102320007C0000207E0000200CB500200190009071
:102330006C48006840F480306A49086000BF694812
:10234000006800F4003000900198401C0190009853
:1023500018B90198B0F5A06FF1D16248006800F497
:10236000003010B10120009001E0002000900098A2
:10237000012843D15C48006840F010005A490860C9
:102380000846006820F0030008600846006840F036
:102390000200086053484068524948600846406857
:1023A00048600846406840F48060486008464068DD
:1023B00020F47C1048600846406840F4E81048600B
:1023C0000846006840F08070086000BF454800681B
:1023D00000F000700028F9D04248406820F0030067
:1023E000404948600846406840F00200486000BF2D
:1023F0003C48406800F00C000828F9D10CBD10B52D
:10240000FFF792FF10BD10B53648006840F001009C
:1024100034490860084640683449084031494860FA
:1024200008460068324908402E490860084600689E
:1024300020F4802008600846406820F4FE004860D0
:102440004FF41F008860FFF7DAFF4FF00060294962
:10245000086010BD10B5002100200022214B5B68F0
:1024600003F00C0121B1042906D0082928D107E086
:10247000214B224C236027E01F4B204C236023E09C
:10248000184B5B6803F47010164B5B6803F48032E2
:10249000022303EB904022B9194B4343174C2360AE
:1024A0000DE0104B5B6803F4003323B1144B43433E
:1024B000124C236003E0104B4343104C236003E0B5
:1024C0000D4B0E4C236000BF00BF064B5B68C3F38F
:1024D00003130C4CE15C094B1B68CB40074C236099
:1024E00010BD000000100240002002400000FFF874
:1024F000FFFFF6FE08ED00E000127A0080000020E9
:1025000000093D00840000205A4A926942F40062AA
:10251000584B9A611A46926942F004029A61564AEF
:10252000126822F47F42544B1A601A46126842F431
:102530003B421A60504A0832126842F440624E4BE5
:1025400008331A604B4A926942F00102494B9A6182
:102550004A4A526822F0C002484B5A60484A1080EA
:10256000121F1180464A103A128842F06002444B12
:10257000103B1A801A46128842F008021A801A4646
:10258000128842F4C0421A801A46128842F400624D
:102590001A804FF400423A4B18331A80384A0C3AEA
:1025A000128842F48072364B0C3B1A801A4612880D
:1025B00042F480521A808022314B2C3B1A801A46FA
:1025C000128842F001021A8070472A4AD26942F00A
:1025D0000402284BDA611A46926942F008029A61B5
:1025E000284A126822F07F42264B1A601A46126867
:1025F00042F03B421A601F4A926942F001021D4BB1
:102600009A611E4A526822F440621C4B5A601E4A6C
:102610001080121F11801C4A143A128842F0600286
:10262000194B143B1A801A46128842F008021A808D
:102630001A46128842F4C0421A801A46128842F49E
:1026400000621A80104A0C3A128842F001020E4BC6
:102650000C3B1A801A46128842F010021A8080221F
:10266000094B2C3B1A801A46128842F001021A804C
:1026700070470000001002400408014000000140C3
:102680002C2C0140000C01402C0800404848806977
:1026900040F080004649886146480068002045496E
:1026A00008600846006844490843424908604148B8
:1026B0000C30006840F0F0003E490C31086000200A
:1026C0003E4908803E4908803E490880704730B541
:1026D0000122002141E0374C0C3424684FF6F0759C
:1026E0002C40344D0C352C602C46246864EA0204DE
:1026F0002C604FF6FF7404EA42022C1F246804F099
:10270000F004F02C27D21023002022E0294C0834BA
:1027100024681C40BCB901EB80042B4D35F81440F3
:10272000284D2C8008E000E030BD224C083424689D
:1027300004F0F004F02CF7D01E4C0834246804F0A8
:10274000F004F02CEFD34FF6FF7404EA4303441C6B
:10275000A0B20428DADB4C1CA1B20429BBDB00BF09
:10276000E2E742F6E06000E0401E0028FCD170473E
:1027700010B510480C3000684FF6F07108400D4954
:102780000C310860081F006800F0F000F0280DD23E
:102790001420FFF79CFD07480830006800F0F000A7
:1027A000F02801D2012010BD0020FCE70020FAE74C
:1027B00000100240001C014033338888980000203C
:1027C00094000020960000209A00002010B5C34815
:1027D000806940F00400C14988610846806940F082
:1027E000080088610846806940F02000886108463A
:1027F000806940F480708861B948006820F47020D6
:10280000B74908600846006840F440300860B448A2
:102810000C30006840F01000B1490C310860B1483C
:10282000006820F47020AF4908600846006840F452
:10283000403008600846C06840F01000C860084694
:10284000006820F4700008600846006840F400004A
:1028500008600846C06840F02000C860022001F00F
:1028600096FA00F07AF9A048008820F040009E49CE
:1028700008800846008820F002000880084600888A
:1028800020F0010008800846008840F040000880E1
:1028900000209649086001209549C1F8900110BDBB
:1028A0002DE9F04107460D46164600209149086083
:1028B000384600F02BF98046002405E0FF2000F0A8
:1028C00025F92855601CC4B2B442F7DB01208949C0
:1028D00008604046BDE8F0812DE9F04107460C460E
:1028E0001546002083490860384600F00FF98046FD
:1028F000002605E014F8010B00F008F9701CC6B2C0
:10290000AE42F7DB01207B4908604046BDE8F0811C
:102910001CB579A103C9CDE90001012000F06EF9D1
:10292000052269463020FFF7D7FF052269461020AF
:10293000FFF7B6FF002406E01DF80400A52800D02C
:1029400003E0601CC4B2052CF6DB00BF052C01D0EF
:1029500001201CBD0020FCE770B505460C46002098
:1029600064490860284600F0D1F80646204600F089
:10297000CDF801205E49C1F89001304670BD70B5B8
:10298000044600205B490860204600F0BFF8FF20A5
:1029900000F0BCF8054601205549C1F890012846D1
:1029A00070BD70B50546022000F028F900204F499F
:1029B000086006222946A020FFF78EFF012050491B
:1029C000C1F8900100BF4B487C3800680028FAD15C
:1029D0000720FFF7D4FF044621462720FFF7BCFF5E
:1029E00004F0100028B1FF21E120FFF7B5FF10200F
:1029F00070BD04F0200008B12020F9E7FF20F7E7C0
:102A000070B50446022000F0F9F80720FFF7B7FF81
:102A1000054629462720FFF79FFF05F0400050B1EB
:102A2000062221466120FFF73BFFFF21E220FFF74E
:102A300093FF002070BD0120FCE710B500202B495A
:102A4000086005222F492A20FFF746FF0121212097
:102A5000FFF782FF01212220FFF77EFF282125209A
:102A6000FFF77AFF06213120FFF776FF0F2126209E
:102A7000FFF772FF0F212020FFF76EFF0120204992
:102A8000C1F8900110BD10B500201849086005225A
:102A90001D493020FFF720FF05221A492A20FFF7A1
:102AA0001BFF01212120FFF757FF01212220FFF703
:102AB00053FF1A212420FFF74FFF28212520FFF77D
:102AC0004BFF0F212620FFF747FF0E212020FFF7A5
:102AD00043FF01200A49C1F8900110BD00100240D7
:102AE00000080140002001400030014090012142D7
:102AF0000000244290012442A5A5A5A5A500000040
:102B000000002142FD690008F86900080246002122
:102B100007E0481C81B24FF6FE70814201DB0020C5
:102B200070474048008900F002000028F1D03D487D
:102B30008281002107E0481C81B24FF6FE7081427D
:102B400001DB0020ECE73748008900F00100002895
:102B5000F1D034488089C0B2E2E700B532488069DC
:102B600040F00400304988610846806940F4805094
:102B700088612E480068C0F313002C49086008469D
:102B800000682B4908432949086028480C30006830
:102B900040F0E00025490C310860224800882149B6
:102BA00008800846008840F40070088008460088C5
:102BB00040F4807008800846008840F004000880D7
:102BC0000846008808800846008840F00200088017
:102BD0000846008840F0010008800846008840F060
:102BE000180008800846008808800846008840F0E1
:102BF00040000880FF20FFF789FF00BD00F00700BC
:102C0000084909884FF6C7721140064A11801146DB
:102C1000098841EAC00111801146098841F040014C
:102C20001180704700300140001002400008014050
:102C30000000B0BB10B5B648806940F00800B44948
:102C400088610846806940F02000886108468069F4
:102C500040F480708861AF48006820F07F40AD4943
:102C600008600846006840F04C500860084640681C
:102C700020F00F0048600846406840F008004860B7
:102C80000846C06840F4E070C86000F07CF9A248D3
:102C9000008820F04000A04908800846008820F005
:102CA000020008800846008820F0010008800846DD
:102CB000008840F04000088000209849086001200A
:102CC0009749C1F89C0110BD2DE9F04107460D461A
:102CD000164600209149091D0860384600F02AF97F
:102CE0008046002405E0FF2000F024F92855601CF0
:102CF000C4B2B442F7DB01208849091D0860404690
:102D0000BDE8F0812DE9F04107460C46154600204C
:102D10008249091D0860384600F00CF980460026FB
:102D200005E014F8010B00F005F9701CC6B2AE42C4
:102D3000F7DB01207949091D08604046BDE8F081B4
:102D40001CB578A103C9CDE90001012000F06EF99E
:102D5000052269463020FFF7D5FF0522694610207D
:102D6000FFF7B2FF002406E01DF80400A52800D0FC
:102D700003E0601CC4B2052CF6DB00BF052C01D0BB
:102D800001201CBD0020FCE770B505460C46002064
:102D90006249091D0860284600F0CCF80646204626
:102DA00000F0C8F801205E49C1F89C01304670BDB2
:102DB00070B5044600205949091D0860204600F0FE
:102DC000B9F8FF2000F0B6F8054601205449C1F8D3
:102DD0009C01284670BD70B50546022000F026F91A
:102DE00000204E49086006222946A020FFF78AFFEE
:102DF00001204B49C1F8980100BF48487838006865
:102E00000028FAD10720FFF7D3FF044621462720E8
:102E1000FFF7BAFF04F0100028B1FF21E120FFF70F
:102E2000B3FF102070BD04F0200008B12020F9E7A6
:102E3000FF20F7E770B50446022000F0F7F80720FE
:102E4000FFF7B6FF054629462720FFF79DFF05F04F
:102E5000400050B1062221466120FFF735FFFF21D7
:102E6000E220FFF791FF002070BD0120FCE710B5C4
:102E700000202A49086005222C492A20FFF742FF3A
:102E800001212120FFF780FF01212220FFF77CFF95
:102E900028212520FFF778FF06213120FFF774FF56
:102EA0000F212620FFF770FF0F212020FFF76CFF76
:102EB00001201B49C1F8980110BD10B50020174929
:102EC000086005221A493020FFF71CFF0522174928
:102ED0002A20FFF717FF01212120FFF755FF0121CD
:102EE0002220FFF751FF1A212420FFF74DFF282150
:102EF0002520FFF749FF0F212620FFF745FF0E2170
:102F00002020FFF741FF01200549C1F8980110BDBD
:102F10000010024000200140003800409801244287
:102F200000002442A5A5A5A5A5000000076A000889
:102F3000026A00080246002107E0481C81B24FF6F1
:102F4000FE70814201DB002070474348008800F09A
:102F500002000028F1D04048001D0280002107E057
:102F6000481C81B24FF6FE70814201DB0020EBE786
:102F70003948008800F001000028F1D03648001DD3
:102F80000088C0B2E0E700B53448806940F008002E
:102F9000324988610846C06940F48040C8613048C1
:102FA0000068C0F313002E490860084600682D49E8
:102FB00008432B4908602A480830006840F4604004
:102FC0002749083108602448083800882249083910
:102FD00008800846008840F4007008800846008891
:102FE00040F4807008800846008840F004000880A3
:102FF0000846008808800846008840F002000880E3
:103000000846008840F0010008800846008840F02B
:10301000180008800846008808800846008840F0AC
:1030200040000880FF20FFF785FF00BD00F007008B
:103030000949083909884FF6C7721140064A083A0B
:1030400011801146098841EAC001118011460988A2
:1030500041F04001118070470838004000100240E4
:10306000040C01400000B0BBFE4908807047FD49D8
:10307000891C0880704700B502461046FFF7F7FF2D
:1030800000BDF84A1080921C1180704700B5F649C7
:103090000889FFF7E9FF00BD00B502460B46F2497B
:1030A0004889FFF7E1FF1012FFF7E1FFD0B2FFF709
:1030B000DEFFED498889FFF7D7FF1812FFF7D7FF2A
:1030C000D8B2FFF7D4FFFFF7E1FF00BD30B50446EB
:1030D0000D4629462046FFF7DFFFE4480088FFF74A
:1030E000C6FF30BD30B504460D46DF494889FFF7BD
:1030F000BBFF2012FFF7BBFFE0B2FFF7B8FF1012D3
:10310000FFF7B5FFD0B2FFF7B2FFD7498889FFF7C5
:10311000ABFF2812FFF7ABFFE8B2FFF7A8FF1812CA
:10312000FFF7A5FFD8B2FFF7A2FFFFF7AFFF30BD53
:1031300030B504460025CC484088401E83B2CA48BA
:103140000088401E82B200210846FFF7CBFF00BF77
:1031500003E0C448801C04806D1CB5F5163FF8D30D
:1031600030BD00B59FB00121080201F01EFA012117
:1031700040F2791001F026FA0120ADF87800102015
:103180008DF87B0003208DF87A001EA9B84800F066
:103190005DFF4CF23370ADF8780018208DF87B009D
:1031A00003208DF87A001EA9B24800F04FFF4FF6B9
:1031B0008070ADF8780018208DF87B0003208DF822
:1031C0007A001EA9AC4800F041FF2020ADF878003D
:1031D00010208DF87B0003208DF87A001EA9A648E8
:1031E00000F034FF41F20100ADF8780018208DF8AE
:1031F0007B0003208DF87A001EA9A04800F026FF6E
:1032000001200890002009900F200A9000200B90C8
:103210000C900D900E90022001900020029005204D
:1032200003900020049005900690079006200F90D0
:1032300000201090119010201290002013901590F3
:103240001490169017904FF4805018900020199009
:103250004FF480401A9000201B9008A81C9001A8F1
:103260001D900FA801F05EFA0121062001F0C2FBBB
:103270001FB000BD10B520207F49143108606420C4
:10328000FFF725F820207C49103108603220FFF735
:103290001EF810BD00B52C207349088101208871EB
:1032A0004FF4A0700880F02048802A2048812B200D
:1032B00088816C213620FFF7E4FE00BD10B5FFF7D2
:1032C00050FFFFF7D7FFCF20FFF7CEFE0020FFF71C
:1032D000CEFEC120FFF7CBFE3020FFF7C8FEED2069
:1032E000FFF7C2FE6420FFF7C2FE0320FFF7BFFE18
:1032F0001220FFF7BCFE8120FFF7B9FEE820FFF7A0
:10330000B3FE8520FFF7B3FE1020FFF7B0FE7A2052
:10331000FFF7ADFECB20FFF7A7FE3920FFF7A7FE92
:103320002C20FFF7A4FE0020FFF7A1FE3420FFF7BA
:103330009EFE0220FFF79BFEF720FFF795FE202060
:10334000FFF795FEEA20FFF78FFE0020FFF78FFEC4
:103350000020FFF78CFEC020FFF786FE1B20FFF742
:1033600086FEC120FFF780FE0120FFF780FEC5200A
:10337000FFF77AFE3020FFF77AFE3020FFF777FE66
:10338000C720FFF771FEB720FFF771FE3620FFF769
:103390006BFE4820FFF76BFE3A20FFF765FE5520D5
:1033A000FFF765FEB120FFF75FFE0020FFF75FFE2D
:1033B0001A20FFF75CFEB620FFF756FE0A20FFF743
:1033C00056FEA220FFF753FEF220FFF74DFE00202D
:1033D000FFF74DFE2620FFF747FE0120FFF747FECF
:1033E000E020FFF741FE0F20FFF741FE2A20FFF704
:1033F0003EFE2820FFF73BFE0820FFF738FE0E2098
:10340000FFF735FE0820FFF732FE5420FFF72FFEAE
:10341000A920FFF72CFE4320FFF729FE0A20FFF723
:1034200026FE0F20FFF723FE0020FFF720FE0020DE
:10343000FFF71DFE0020FFF71AFE0020FFF717FE22
:10344000E120FFF711FE0020FFF711FE1520FFF726
:103450000EFE1720FFF70BFE0720FFF708FE1120D6
:103460000EE00000FE07006CD4000020BA0000202F
:10347000000C0140001401400018014000200140F0
:10348000FFF7F5FD0620FFF7F2FD2B20FFF7EFFD1C
:103490005620FFF7ECFD3C20FFF7E9FD0520FFF784
:1034A000E6FD1020FFF7E3FD0F20FFF7E0FD3F20D2
:1034B000FFF7DDFD3F20FFF7DAFD0F20FFF7D7FD17
:1034C0002B20FFF7D1FD0020FFF7D1FD0020FFF7F3
:1034D000CEFD0120FFF7CBFD3F20FFF7C8FD2A20DE
:1034E000FFF7C2FD0020FFF7C2FD0020FFF7BFFD80
:1034F0000020FFF7BCFDEF20FFF7B9FD1120FFF71B
:10350000B3FD7820FEF7E3FE2920FFF7ADFDFFF7BE
:10351000C1FE01200149086010BD000080812142E8
:1035200070B50025E848806940F00400E6498861EC
:103530000846806940F0080088610846806940F0CC
:10354000100088610846806940F0200088610846C4
:10355000806940F0400088610846806940F48070CE
:103560008861DA48006820F00F00D84908600846F2
:10357000006840F008000860D4480830006840F453
:103580008070D24908310860D148006820F47F205B
:10359000CF4908600846006840F44C300860CC48C9
:1035A0000C30006840F01800C9490C3108604FF039
:1035B0008830C84908600846C06840F0FF00C8600D
:1035C000C548006820F07060C3490860084600687C
:1035D00040F040700860C0480C30006840F0400087
:1035E000BD490C310860BD48006820F0FF00BB49B0
:1035F00008600846006840F033000860B7480C30A7
:10360000006840F00300B5490C3108600120091D35
:1036100008600220091D0860B148406820F07F4022
:10362000AF4948600846406840F04C5048604FF44D
:10363000E030C860012000F0AAFB00F055F98021BD
:10364000122000F050FA08B1012070BD3220FEF7C0
:103650003EFE0B2000F066FA0446732C01D00220D7
:10366000F3E70A2000F05EFA0446762C01D002202F
:10367000EBE700250DE09B4A02EB45025178994AA1
:1036800012F8150000F02FFA0220FEF720FE681C49
:1036900085B2A42DEFD30020D7E72DE9F0410446F1
:1036A000E72500260027012C06D0022C08D0032C89
:1036B0000AD0042C10D10BE0E5255A265C270BE03C
:1036C000E5255826602707E0E52584264C2703E0FA
:1036D000E5259626402700BF00BF2946132000F0AD
:1036E00002FA3146012000F0FEF93946022000F0CE
:1036F000FAF9BDE8F0812DE9F04104468025222643
:103700005E2734B1012C08D0032C0AD0042C10D130
:103710000BE0402511262F270BE066251B264B27A3
:1037200007E099252826712703E0C02533268D2739
:1037300000BF00BF29464F2000F0D5F92946502090
:1037400000F0D1F90021512000F0CDF9314652208E
:1037500000F0C9F93946532000F0C5F92946542034
:1037600000F0C1F99E21582000F0BDF9BDE8F081BC
:1037700070B50446002534B1012C06D0032C06D0C8
:10378000042C08D105E0B02505E0982503E01825B4
:1037900001E0302500BF00BF2946552000F0A3F905
:1037A00070BD70B50446402534B1012C06D0032C01
:1037B00006D0042C08D105E0302505E0382503E0CB
:1037C000502501E0602500BF00BF2946562000F0CB
:1037D0008AF970BD2DE9F04104460425C0268027F2
:1037E000072C1DD2DFE804F01C04080C101418008C
:1037F00024258026802713E01425802680270FE0CB
:103800001425C02680270BE014254026402707E01A
:1038100014258026C02703E01425A026402700BFDA
:1038200000BF29463A2000F05EF93146682000F0DA
:103830005AF93946672000F056F9BDE8F0812DE9C4
:10384000F04705460E469046994605EB48001FFA9C
:1038500080FA06EB490087B2B7F5447F02DDA7F591
:10386000447087B2032000F05DF9044604F0F004D0
:103870000AF00301284661F39F0004432146032018
:1038800000F031F9C5F38701192000F02CF9CAF3D3
:1038900087011A2000F027F9322000F043F904468E
:1038A00004F0C00407F00701304661F3DF00044371
:1038B000C6F3C701172000F016F9C7F3C701182097
:1038C00000F011F9BDE8F087001002400408014043
:1038D000000C01400010014000140140001801409C
:1038E000002001400C6A0008A248806940F4807002
:1038F000A04988610846806940F0200088619E48A0
:10390000406820F470009C4948600846406840F4D4
:10391000000048600846C06840F40050C8609748FE
:10392000006820F47040954908600846006840F43B
:103930004050086091480C30006840F008008F4902
:103940000C3108608C48406820F470008A49486057
:103950000846406840F440104860704710B50120A8
:10396000874908608749C1F88C013220FEF78BFC3B
:103970000020834908603220FEF785FC0020814941
:10398000C1F88C0110BD10B500207D4908603220BF
:10399000FEF779FC01207B49C1F88C013220FEF74B
:1039A00072FC0120764908603220FEF76CFC10BDE5
:1039B00010B53220FEF767FC01207149086071499B
:1039C000C1F88C013220FEF75EFC00206E490860D1
:1039D0003220FEF758FC00206C49C1F8B4013220B7
:1039E000FEF751FC10BD70B5044600261AE004F045
:1039F000800018B101206249086002E0002060499F
:103A000008606006040E3220FEF73DFC01205E498E
:103A100008603220FEF737FC00205A49C1F88C01BB
:103A2000701CC6B2082EE2DB5348406820F47000D8
:103A3000514948600846406840F400004860322020
:103A4000FEF721FC0120504908603220FEF71BFCE4
:103A50004E48D0F8340108B1012500E000250020CF
:103A6000494908604448406820F470004249486071
:103A70000846406840F440104860284670BD70B564
:103A800000243D48406820F470003B4948600846E7
:103A9000406840F400004860082515E03220FEF739
:103AA000F2FB0120384908606006040E3748D0F860
:103AB000340108B1601CC4B23220FEF7E4FB0020E0
:103AC00031490860681EC5B2002DE7DC2A4840680D
:103AD00020F47000284948600846406840F44010CF
:103AE0004860204670BD70B505460C460026FFF7BD
:103AF00035FF4220FFF777FF00B101266420FEF773
:103B0000C2FB2846FFF76FFF00B101266420FEF7D5
:103B1000BAFB2046FFF767FF00B10126FFF733FF2E
:103B2000304670BD70B504460025FFF717FF4220F0
:103B3000FFF759FF6420FEF7A6FB2046FFF753FF6F
:103B40006420FEF7A0FBFFF71EFF6420FEF79BFB3F
:103B5000FFF704FF4320FFF746FF6420FEF793FBC7
:103B6000FFF78DFF0546FFF723FFFFF70CFF284601
:103B700070BD000000100240002001400014014010
:103B8000B4012442008022428C812242000024425F
:103B9000AB4A0A400243AB4B1A6070470146072309
:103BA00023EA01021202A74B1B1D18684FF6FF0300
:103BB0001840A54B18431043A24B1B1D18607047BB
:103BC0002DE9F0478046894614461D462046E117F8
:103BD00004EB9171C1F3870AE11704EB917189102D
:103BE000A4EB8101CFB2042000EBC700C7B2284686
:103BF000FFF7D4FFC5F1040008FA00F60F202841B2
:103C000000EA0900064306F00F06202C09DA8F4867
:103C100001680120A04001434FF0E020C0F80011EE
:103C20000BE08A48001D0068A4F1200101228A40AF
:103C300010434FF0E021C1F80401854810F80A0054
:103C400006FA07F10843C1B2814800F80A10BDE83E
:103C5000F08770B504460B46CE1701EB9676C6F397
:103C60008700CE1701EB9676B610A1EB8606B60656
:103C7000350E784B9B6943F00103764EB3614FEAF2
:103C8000B63353F820300F26AE40B343724E46F899
:103C90002030334653F8203004FA05F61E436E4BAD
:103CA00043F820606D4B1B6801268E4033436B4EFA
:103CB000336002F0010343B1684B0C331B680126EB
:103CC0008E403343654E0C36336002F0020343B13D
:103CD000624B08331E6801238B401E435F4B083341
:103CE0001E6070BD00B500205A490861C8601420EC
:103CF000486100208861C8610846006840F0010002
:103D000008600846406856490840524948600846DD
:103D10000068544908404F4908600846006820F48C
:103D2000802008600846406820F4FE0048600020BB
:103D3000886000214FF00060FFF72AFF00BD10B53A
:103D400040480830006840F004003E4908310860EF
:103D50004048C06940F080503E49C86142484068D0
:103D600040F48070404948600846006840F0040014
:103D700008600846006840F002000860FCF726FA78
:103D800010BD3148001D2F49091D086070470146CC
:103D90004906304A926942F001022E4B9A612E4A3E
:103DA000083A526822F0E0622B4B083B5A601A46F0
:103DB00052680A435A60704730B504460025FFF741
:103DC00091FF2448006840F480302249086000BF19
:103DD00020480068400C0028FAD04FF480601D494C
:103DE0004860A01EC4B20846406840EA844048606B
:103DF0000846406840F4803048601C48006840F045
:103E000032001A4908601348006840F08070114978
:103E1000086000BF0F480068400E0028FAD00D4827
:103E2000406840F002000B49486005E009484068DE
:103E3000C0F3870505F00305022DF7D130BD000062
:103E400080FFFF1F08ED00E00000FA0500E100E040
:103E500000E400E0001002400800014000040140BE
:103E60000000FFF8FFFFF6FE007000400020024057
:103E70000948804709480047FEE7FEE7FEE7FEE7FE
:103E8000FEE7FEE7FEE7FEE7FEE7FEE7044805493A
:103E9000054A064B7047000007240008310100085E
:103EA0004801002048070020480300204803002064
:103EB00031490143314A1160704770B50021002338
:103EC0000F22C47804B32D4C246804F4E064C4F5D4
:103ED000E064210AC1F10403CA40447804FA03F102
:103EE0008478144021430901254C0678A1550478B3
:103EF00004F01F050124AC4005786D11AD0005F1FB
:103F0000E025C5F8004109E0047804F01F0501240C
:103F1000AC401C4D0678761145F8264070BD1A4A13
:103F20000A400243154B1B1F1A60704739B1134AF0
:103F3000121D12680243114B1B1D1A6006E00F4A46
:103F4000121D126882430D4B1B1D1A607047042816
:103F500008D14FF0E021096941F004014FF0E0225F
:103F6000116107E04FF0E021096921F004014FF0F1
:103F7000E0221161704700000000FA050CED00E03E
:103F800000E400E080E100E080FFFF1F10B5044680
:103F9000CC48844208D10121042000F02DFB0021EF
:103FA000042000F029FB46E0C748844208D10121E3
:103FB000082000F021FB0021082000F01DFB3AE062
:103FC000C248844208D10121102000F015FB0021D5
:103FD000102000F011FB2EE0BD48844208D10121E1
:103FE000202000F009FB0021202000F005FB22E04A
:103FF000B848844208D10121402000F0FDFA002198
:10400000402000F0F9FA16E0B348844208D10121BB
:10401000802000F0F1FA0021802000F0EDFA0AE0A3
:10402000AE48844207D10121801500F0E5FA002155
:10403000A01500F0E1FA10BD10B50121084600F00E
:10404000DBFA0021012000F0D7FA10BD2DE9F04184
:10405000024600250026002000230024002791F8B6
:1040600003C00CF00F0591F803C00CF0100CBCF16C
:10407000000F03D091F802C04CEA050591F800C08A
:10408000BCF1000F31D0146800202BE04FF0010C80
:104090000CFA00F3B1F800C00CEA03069E4220D1EE
:1040A00083004FF00F0C0CFA03F7BC4305FA03FC36
:1040B0004CEA040491F803C0BCF1280F06D14FF07C
:1040C000010C0CFA00FCC2F814C00AE091F803C01D
:1040D000BCF1480F05D14FF0010C0CFA00FCC2F8FE
:1040E00010C0401C0828D1D31460B1F800C0BCF146
:1040F000FF0F34DD546800202EE000F1080C4FF073
:10410000010808FA0CF3B1F800C00CEA03069E425D
:1041100021D183004FF00F0C0CFA03F7BC4305FAD2
:1041200003FC4CEA040491F803C0BCF1280F05D14C
:1041300000F1080C08FA0CF8C2F8148091F803C0DA
:10414000BCF1480F07D100F1080C4FF0010808FA44
:104150000CF8C2F81080401C0828CED35460BDE88B
:10416000F0814FF6FF710180022181700421C1703E
:1041700070470246002093680B400BB1012000E01D
:10418000002070470146886880B2704702460020D0
:10419000D3680B400BB1012000E0002070470146BE
:1041A000C86880B2704701617047416170470AB1C9
:1041B000016100E041617047C16070474FF4803297
:1041C0000A43826181618261826982697047024625
:1041D0000020434B18684FF68073184040EA0210E5
:1041E00008433F4B186070473E49C8617047F0B5BF
:1041F0000A46002300240021002500F00046B6F105
:10420000004F02D1364EF16901E0354E7168C0F3BE
:10421000034583B200F44016B6F5401F08D121F0E3
:1042200070612F4E766826F070662D4F7E6012E02A
:1042300000F48016B6F5801F06D1032606FA05F4B1
:10424000A14341F0706106E0460D360103FA06F61F
:10425000B14341F0706122B1460D360103FA06F612
:10426000314300F00046B6F1004F02D11C4EF1611F
:1042700001E01B4E7160F0BD30B500228B071C0FB2
:104280000F2303FA04F2164B08338C1053F8243032
:104290009343134C08348D1044F8253023468C107A
:1042A00053F824308C07240F00FA04F423430C4CF9
:1042B00008348D1044F8253030BD0A49DC310860DF
:1042C0007047000000080140000C01400010014050
:1042D0000014014000180140001C01400020014072
:1042E0000000014000002042DF48006840F001006B
:1042F000DD49086008464068DC490840DA49486002
:1043000008460068DA490840D7490860084600684E
:1043100020F4802008600846406820F4FE004860D1
:104320004FF41F0088607047CF49096821F480313D
:10433000CD4A11601146096821F480211160B0F561
:10434000803F03D0B0F5802F0ED106E0C649096842
:1043500041F48031C44A116007E0C349096841F45F
:10436000A021C14A116000E000BF00BF704710B536
:1043700001460022002300204A11012A02D1BA4C32
:10438000236806E0022A02D1B74C236A01E0B64C4A
:10439000636A01F01F02012494401C400CB101200B
:1043A00000E0002010BD38B500200090002400255A
:1043B00000BF3120FFF7DBFF05460098401C00904E
:1043C0000098B0F5A06F01D0002DF2D03120FFF79A
:1043D000CEFF08B1012400E00024204638BD01468C
:1043E0000020A14A106820F0F80040EAC1001060E7
:1043F0007047A04908607047024600209A4B5868F1
:1044000020F47C1042EA01031843974B5860704730
:1044100098490866704701460020934A506820F08A
:1044200003000843506070478F48406800F00C005C
:104430007047014600208C4A506820F0F000084385
:104440005060704701460020874A506820F4E060C1
:1044500008435060704701460020834A506820F4AA
:10446000605040EAC1005060704729B17E4A527ADC
:1044700002437D4B5A7204E07B4A527A82437A4B64
:104480005A7270477B49D831086070470146002056
:10449000754A506820F4404008435060704700213E
:1044A000714A20321170704A82F82010012802D01F
:1044B00004280AD104E001216B4A2032117005E082
:1044C0000521694A2032117000E000BF00BF70472B
:1044D0006949086070476449096A0143624A116288
:1044E0007047654944390860704730B500210022A3
:1044F000002400235C4D6D6805F00C0121B10429F6
:1045000005D0082923D105E05C4D056022E05B4D14
:1045100005601FE0544D6D6805F47012524D6D68D2
:1045200005F48034022505EB92421CB9544D5543E5
:1045300005600BE04C4D6D6805F400351DB1504D24
:104540005543056002E04D4D5543056002E04B4D7B
:10455000056000BF00BF444D6D6805F0F00109091A
:10456000484D6B5C0568DD4045603F4D6D6805F466
:10457000E061090A434D6B5C4568DD4085603A4D5A
:104580006D6805F46051C90A3E4D6B5C4568DD40BD
:10459000C560354D6D6805F44041890B3A4D6B5C43
:1045A000C568B5FBF3F5056130BD29B12E4A5269E6
:1045B00002432D4B5A6104E02B4A526982432A4B35
:1045C0005A61704729B1284A92690243264B9A6181
:1045D00004E0254A92698243234B9A61704729B1CE
:1045E000214AD2690243204BDA6104E01E4AD269B3
:1045F00082431D4BDA61704729B11B4AD2680243DE
:10460000194BDA6004E0184AD2688243164BDA602C
:10461000704729B1144A12690243134B1A6104E02E
:10462000114A12698243104B1A617047124940398E
:10463000086070470F49C86470470B49C8717047DC
:104640000948406A40F08070074948627047014657
:104650000020054A92680A400AB1012000E00020CB
:104660007047014988727047001002400000FFF84F
:10467000FFFFF6FE000042428004424200127A0030
:1046800000093D00C0000020D000002030B943F2F6
:10469000DB028100A1F1C0410A6005E043F2D202D1
:1046A0008100A1F1C0410A606FF07042411C890095
:1046B000A1F1C0410A608100A1F1C041C1F804210B
:1046C000704710280AD118214FF02042116640216E
:1046D00051664FF0FC319166D16610E01821F74A1F
:1046E000116040214FF02042C2F884104FF0FC319D
:1046F000F24A083211604FF02042C2F88C10704725
:104700001820EE492031086000200906C1F8A400F5
:104710004FF0FC30E94928310860091D0860091D87
:1047200008607047D0E901121143C2681143026961
:1047300011434269114382691143C2691143026AFC
:104740001143426A1143826A1143C26A1143026BE8
:10475000114302689200A2F1C042116081680829E9
:104760000BD101688900A1F1C041096841F0400204
:1047700001688900A1F1C0410A60416B0968426B80
:10478000526841EA0211426B926841EA0221426B8F
:10479000928941EA0241426B128A41EA0251426B1C
:1047A000127D41EA0261426B926911430268521C18
:1047B0009200A2F1C0421160C16AB1F5804F1BD1D5
:1047C000816B0968826B526841EA0211826B9268C0
:1047D00041EA0221826B128A41EA0251826B127D08
:1047E00041EA0261826B9269114302689200A2F170
:1047F000C042C2F8041107E06FF0704201688900FE
:10480000A1F1C041C1F80421704730B50021002258
:104810000023446844F0080485682C43C5682C4391
:1048200005692C43456944EA4524856944EA4531D4
:10483000C4692468C5696D6844EA0524C5692D8981
:1048400044EA0544C5692D7B44EA0562046A24688C
:10485000056A6D6844EA0524056A2D8944EA054421
:10486000056A2D7B44EA05630468102C05D14FF0DE
:1048700020442166A266E36608E0904C21604FF078
:104880002044C4F888208D4C0C34236030BD01686E
:1048900041F01001426841EA4221826841EA423116
:1048A000864A20321160C1680968C268526841EACC
:1048B0000221C268128941EA0241C268127B41EAC0
:1048C00002617E4A283211600169096802695268F2
:1048D00041EA02210269128941EA02410269127B1E
:1048E00041EA0261754A2C321160416909684269E6
:1048F000526841EA02214269128941EA0241426951
:10490000127B41EA02614FF02042C2F8B0107047BA
:10491000002101600221416000218160C1600161CC
:1049200041618161C16101624FF48051416249007E
:1049300081620021C16201630F21426B1160426BF1
:104940005160FF21426B91600F21426BD160426B3D
:104950001161426B51610021426B91610F21826BA9
:104960001160826B5160FF21826B91600F21826B1D
:10497000D160826B1161826B51610021826B916108
:10498000704710210160002141608160C1600161B8
:1049900041618161FC21C2691160C2695160C269D3
:1049A0009160C269D160026A1160026A5160026A54
:1049B0009160026AD16070470021016041608160AE
:1049C000FC21C2681160C2685160C2689160C2680F
:1049D000D1600269116002695160026991600269E7
:1049E000D1604269116042695160426991604269D7
:1049F000D160704751B18200A2F1C042126842F00A
:104A000001038200A2F1C042136009E08200A2F11A
:104A1000C04212682A4B1A408300A3F1C0431A60B7
:104A2000704799B1102808D14FF02042126E42F021
:104A300004024FF020431A661DE0204A126842F03B
:104A400004024FF02043C3F8802014E0102809D15D
:104A50004FF02042126E1A4BDB1E1A404FF02043DB
:104A60001A6608E0154A1268154BDB1E1A404FF013
:104A70002043C3F88020704748B1104920310968AD
:104A800041F004014FF02042C2F8A01009E00B49A8
:104A9000203109680A4AD21E11404FF02042C2F864
:104AA000A0107047B9B110280CD14FF02042126EFF
:104AB00042F040024FF020431A661FE0800000A041
:104AC000FEFF0F00724A126842F040024FF020438E
:104AD000C3F8802012E0102808D14FF02042126E57
:104AE0006C4B1A404FF020431A6607E0684A126880
:104AF000684B1A404FF02043C3F8802070470146AE
:104B00000020102903D14FF02042506F02E0604A8C
:104B100014321068704710B5F2B1102807D14FF069
:104B200020435B6E0B434FF02044636632E0B0F5E8
:104B3000807F08D1564B1B1D1B680B434FF0204450
:104B4000C4F8843026E0524B24331B680B434FF0EB
:104B50002044C4F8A4301DE0102807D14FF02043B2
:104B60005B6E8B434FF02044636613E0B0F5807FAB
:104B700008D1474B1B1D1B688B434FF02044C4F8E2
:104B8000843007E0424B24331B688B434FF02044B2
:104B9000C4F8A43010BD10B5024600200023102A2E
:104BA00003D14FF02044636E09E0B2F5807F03D15A
:104BB000374C241D236802E0354C2434236803EA73
:104BC00001040CB1012000E0002010BD102807D125
:104BD0004FF02042526E8A434FF020435A6613E052
:104BE000B0F5807F08D12A4A121D12688A434FF01F
:104BF0002043C3F8842007E0254A243212688A4300
:104C00004FF02043C3F8A420704770B5024600203F
:104C1000002300240025102A03D14FF02046736E94
:104C200009E0B2F5807F03D1194E361D336802E0EA
:104C3000174E2436336803EA010403EAD10514B1A0
:104C40000DB1012000E0002070BD102808D14FF008
:104C50002042526E22EAD1024FF020435A6615E0FC
:104C6000B0F5807F09D10A4A121D126822EAD102EA
:104C70004FF02043C3F8842008E0054A243212682C
:104C800022EAD1024FF02043C3F8A420704700006D
:104C9000800000A0BFFF0F0010B5431C02E010F819
:104CA000011B71B18107FAD14FF0013202C88C1A91
:104CB0008C4314EAC211F9D0C01A0A0603D0C01EF0
:104CC00010BDC01A10BD0A0401D0801E10BD09021B
:104CD000FCD0401E10BD70477047704700487047B9
:104CE000E40000207546FFF7F9FFAE46050069466F
:104CF000534620F00700854618B020B5FFF7C6F8E8
:104D0000BDE820404FF000064FF000074FF00008CC
:104D10004FF0000B21F00701AC46ACE8C009ACE84D
:104D2000C009ACE8C009ACE8C0098D46704704462C
:104D3000AFF300802046FBF742FA0000014918203B
:104D4000ABBEFEE726000200704700000000000036
:104D50000000000000000000040404040404000437
:104D6000000000140A0A000000000000000000001B
:104D700014143F140A3F0A0A000000041E15050619
:104D80000C14150F0400000012150D0A142C2A1221
:104D900000000000040A0A1E151509360000000272
:104DA00002010000000000000000002010080808B8
:104DB0000808081020000002040808080808080471
:104DC000020000000004150E0E1504000000000093
:104DD0000404041F0404040000000000000000009C
:104DE00000000002020100000000001F000000009F
:104DF00000000000000000000000000200000010A1
:104E00000808080404020202010000000E1111113A
:104E10001111110E00000000040604040404040E25
:104E2000000000000E1111080402011F0000000024
:104E30000E11100C1010110E00000000080C0A0AD0
:104E4000091E0818000000001F01010F1010110EAC
:104E5000000000000E09010F1111110E00000000EA
:104E60001F09080404040404000000000E11110EC0
:104E70001111110E000000000E1111111E10120E62
:104E8000000000000000040000000004000000001A
:104E900000000004000000040400002010080402C8
:104EA000040810200000000000001F00001F000088
:104EB0000000000204081020100804020000000096
:104EC0000E11110804040004000000000E11191551
:104ED000151D011E0000000004040C0A0A1E1233F6
:104EE000000000000F12120E1212120F000000003C
:104EF0001E1101010101110E000000000F1212121B
:104F00001212120F000000001F120A0E0A02121FD6
:104F1000000000001F120A0E0A0202070000000033
:104F20001C1201013911120C000000003312121E74
:104F300012121233000000001F0404040404041FB2
:104F4000000000003E0808080808080907000000E3
:104F500037120A060A0A123700000000070202028E
:104F60000202223F000000001B1B1B1B151515151C
:104F7000000000003B1216161A1A1217000000005B
:104F80000E1111111111110E000000000F12120E5E
:104F900002020207000000000E1111111117190E74
:104FA000180000000F12120E0A1212370000000043
:104FB0001E1101060810110F000000001F15040447
:104FC0000404040E00000000331212121212120C1C
:104FD000000000003312120A0A0C04040000000052
:104FE0001515150E0A0A0A0A000000001B0A0A0419
:104FF000040A0A1B000000001B0A0A040404040E31
:10500000000000001F0908040402121F0000001C19
:1050100004040404040404041C0000020202040446
:10502000080808100000000E08080808080808080A
:105030000E0000040A000000000000000000000054
:105040000000000000000000003F0004000000001D
:1050500000000000000000000000000C121C123CC8
:10506000000000000302020E1212120E00000000E7
:105070000000001C1202021C000000001810101C8E
:105080001212123C000000000000000C121E021C54
:10509000000000003804041E0404041E0000000088
:1050A0000000003C120C021E221C00000302020E33
:1050B0001212123700000000040000060404040E5F
:1050C000000000000800000C08080808080700009D
:1050D0000302023A0A0E123700000000070404041B
:1050E0000404041F000000000000000F1515151532
:1050F000000000000000000F121212370000000034
:105100000000000C1212120C000000000000000F42
:105110001212120E020700000000001C1212121CD4
:10512000103800000000001B06020207000000000B
:105130000000001E020C101E000000000004040EFF
:1051400004040418000000000000001B1212123CAE
:105150000000000000000037120A0C0400000000EC
:1051600000000015150E0A0A000000000000001BD8
:105170000A040A1B0000000000000037120A0C0499
:10518000040300000000001E0804041E00000018B4
:10519000080808040808080818000808080808088B
:1051A00008080808080800060404040804040404A5
:1051B00006000225180000000000000000000000AA
:1051C00000000000000000000000000000000000DF
:1051D000000808080808080800001818000000481F
:1051E0006C2412000000000000000000000000001D
:1051F000002424247F1212127F12121200000000D9
:10520000081C2A2A0A0C1828282A2A1C0808000028
:105210000022251515152A58545454220000000068
:10522000000C1212120A76252911916E0000000658
:105230000604030000000000000000000000004021
:10524000201010080808080808101020400000026C
:1052500004080810101010101008080402000000C4
:10526000000008086B1C1C6B080800000000000010
:105270000000080808087F0808080800000000006F
:10528000000000000000000000000606040300000B
:10529000000000000000FE00000000000000000010
:1052A00000000000000000000000060600000000F2
:1052B0008040402020101008080404020200000072
:1052C0000018244242424242424224180000000098
:1052D00000080E08080808080808083E000000003A
:1052E000003C4242422020100804427E00000000A0
:1052F000003C4242201820404042221C0000000096
:1053000000203028242422227E2020780000000063
:10531000007E0202021A26404042221C00000000C9
:1053200000382402021A26424242241800000000DB
:10533000007E22221010080808080808000000005B
:10534000003C4242422418244242423C00000000F9
:1053500000182442424264584040241C00000000CF
:1053600000000000181800000000181800000000DD
:105370000000000000080000000000080804000011
:105380000040201008040204081020400000000023
:10539000000000007F0000007F000000000000000F
:1053A0000002040810204020100804020000000041
:1053B000003C424246402010100018180000000037
:1053C000001C225A555555552D42221C0000000044
:1053D000000808181414243C224242E70000000090
:1053E000001F2222221E22424242221F00000000F1
:1053F000007C4242010101010142221C0000000028
:10540000001F2242424242424242221F000000004C
:10541000003F4212121E12120242423F00000000E0
:10542000003F4212121E1212020202070000000088
:10543000003C2222010101712122221C00000000F7
:1054400000E7424242427E42424242E70000000000
:10545000003E0808080808080808083E0000000088
:10546000007C10101010101010101010110F000000
:10547000007722120A0E0A12122222770000000080
:1054800000070202020202020202427F0000000044
:105490000077363636362A2A2A2A2A6B0000000080
:1054A00000E346464A4A52525262624700000000F8
:1054B000001C2241414141414141221C00000000A9
:1054C000003F424242423E02020202070000000048
:1054D000001C2241414141414D53321C60000000FB
:1054E000003F4242423E1212222242C70000000008
:1054F000007C4242020418204042423E000000006C
:10550000007F4908080808080808081C0000000077
:1055100000E74242424242424242423C0000000016
:1055200000E7424222242414141808080000000056
:10553000006B494949495555362222220000000096
:1055400000E7422424181818242442E70000000031
:1055500000772222141408080808081C0000000024
:10556000007E2120101008040442423F0000007811
:105570000808080808080808080808087800000053
:105580000202040408080810102020204040001ED9
:105590001010101010101010101010101E000038F5
:1055A00044000000000000000000000000000000B7
:1055B00000000000000000000000000000FF0006E6
:1055C00008000000000000000000000000000000D3
:1055D00000000000003C4278444242FC0000000011
:1055E00000030202021A26424242261A000000006C
:1055F00000000000003844020202443800000000AD
:105600000060404040784442424264D800000000BC
:1056100000000000003C427E0202423C000000000C
:1056200000F08808087E08080808083E000000000E
:1056300000000000007C22221C023C42423C000090
:1056400000030202023A4642424242E700000000E2
:10565000000C0C00000E08080808083E00000000BE
:10566000003030000038202020202020221E0000A2
:10567000000302020272120A1612227700000000D2
:10568000000E0808080808080808083E0000000086
:1056900000000000007F9292929292B700000000FA
:1056A00000000000003B4642424242E7000000008A
:1056B00000000000003C42424242423C0000000028
:1056C00000000000001B26424242221E020700008A
:1056D00000000000007844424242447840E000006C
:1056E0000000000000774C040404041F00000000C8
:1056F00000000000007C42023C40423E00000000EE
:1057000000000008083E08080808083000000000F3
:105710000000000000634242424262DC00000000E0
:105720000000000000E742242414080800000000E4
:105730000000000000EB49495555222200000000FE
:1057400000000000007624181818246E00000000E5
:105750000000000000E74224241418080807000095
:1057600000000000007E22100808447E000000C0F7
:10577000202020202010202020202020C0001010D9
:105780001010101010101010101010101010000633
:1057900008080808081008080808080806000C325D
:1057A000C200000000000000000000000000C9EE80
:1057B000000027FC140414A481104208404010404B
:1057C00017FC2040E0E0215022482C4620400040B9
:1057D000DBDA11041124112411241124FD241124D5
:1057E00011241124112411241D24E1244224020433
:1057F0000404CAD00200010000007FFC0100010087
:1058000001003FF821082108210821082128211042
:1058100001000100C8AB000000000180024004301C
:10582000180860061FF90100010001003FF801009F
:10583000010001007FFEB6AF0000000000203E2006
:10584000007C002200227F2210221022122212222B
:10585000224223423D82009CB5E700000100010086
:105860001FF0610C410441047FFC410441044104E8
:105870007FFC01000102010201FCD7D300000000FF
:105880003FF8001000600080010000807FFE0040B3
:10589000004000200020002018400780BCBC1020E1
:1058A0001020102013FEFC201020102015FC18845E
:1058B0003088D04810501020105051882606CAF564
:1058C00001000120011001107FFC0380054005400C
:1058D000092011102108410481020100010001008A
:1058E000D3D002000200FFFE040004000FF00810F5
:1058F00018102FF0481088100FF0081008100850EA
:105900000820CFDE00007BF84A08520853F86208EE
:1059100052084BF84A444A486A30522042104288A2
:1059200043064200B9AB0080048004800840084070
:105930001020201042088206040004400820102095
:105940003FF010100000CBBE00003FF80008000838
:105950007FE8000800081F881088108810881088C9
:105960001F88108800280010BBB600800080FC80D3
:1059700004FC050449082A401440104028A024A033
:1059800045108110020804040802D3AD00002080F5
:10599000133C122402240224F2241224122412B4EE
:1059A000132812201020282047FE0000C4FA090006
:1059B000090011FC3204544899501148124414440F
:1059C0001140108002005104511290120FF0B4BF28
:1059D00000000020102013FE202026244A247A24D0
:1059E0001224222423FC7C20002204227822003C62
:1059F000C9AB0000000004000FF0102020207FFC45
:105A000020842084208420843FF82000200220026B
:105A10001FFECCEE00000000204023FE204079FC59
:105A2000220423FC220423FC220423FC3A0465FA0A
:105A300001980204B3E40000010001007FFE02208F
:105A40000410040808043FFC0442044004400442DB
:105A500008421042607EBED800000000207E3E80DA
:105A60004880488048FE48827F8208820C8214FA6F
:105A700012842280218040FED0CE000000007F846E
:105A80002208223022C0220222047FC8223022C2F1
:105A900022022204220822304040BBAD0000000058
:105AA0007FFE00000FF011101110111051125FF263
:105AB0005112511251124FF240027FFCD4B2000039
:105AC00000007FFE47E24812481247E24FF25012B0
:105AD00050125112511242924472580A3FFCCDBCEE
